:100000000C94AA040C94F1040C94F1040C941213B3
:100010000C94F1040C94F1040C94F1040C94F1048C
:100020000C94F1040C94F1040C94A2250C94742605
:100030000C94F8200C94F1040C94F1040C94F10449
:100040000C94F1040C94F1040C94F1040C94F1045C
:100050000C94F1040C9451210C94F1040C94F104CF
:100060000C94F1040C94F1040C94F1040C94F1043C
:100070000C94F1040C94F1040C94F1040C94F1042C
:100080000C94F1040C94F1040C94F1040C94F1041C
:100090000C94F1040C94F1040C94F1040C94F1040C
:1000A0000C94F1040C94F1040C94F1045D076E07B8
:1000B00061076E0765076E076E076E0769076E07B3
:1000C00069076E0769076E076907591759178B1774
:1000D0008B17E618D217E618E618DD17761887187A
:1000E00087187E197E1990199019871990199019FF
:1000F00090197E197E198C19901990198C19E12686
:100100000827002808270028542777270028CE270B
:10011000DD27808182838485868788898A8B8C8D80
:100120008E8F9091929394A0A1A2A3A4A5A6A7A814
:10013000A9AAABACADAEAFB0B1B2B3B4C0C1C2C38B
:10014000C4C5C6C7C8C9CACBCCCDCECFD0D1D2D3F7
:10015000D40041646A757374005261697365004C20
:100160006F7765720044656661756C74004C6179E7
:1001700065723A2000290014001A000800150017C3
:10018000002B6104611600070009000A00E1001D50
:10019000621B00060019000500000000000000E3DB
:1001A000002C002A5D2A00130012000C0018001C0D
:1001B00000340033710F000E000D000B00E5003815
:1001C000723700360010001100000000000000E649
:1001D0000028002B5D29001E021F0220022102229E
:1001E000022B612B610100010034003500E100E1C8
:1001F000000100390034023502000000000000E375
:10020000002C002A5D2A0027022602250224022350
:10021000023500310030002F002E002D0035023154
:100220000230022F022E022D02000000000000E624
:100230000028002B5D29001E001F00200021002245
:10024000002B612B61500052004F006500E100E17E
:100250000035005100E200E300000000000000E370
:10026000002C002A5D2A00270026002500240023F8
:1002700000E40052004B004A002C002800E5005129
:10028000004E004D004C002A00000000000000E677
:100290000028002B5D2B003A003B003C003D003E57
:1002A000002B6144614500000000000000E10000F7
:1002B000620000000000000000000000000000E3F9
:1002C000002C002A5D010043004200410040003F35
:1002D00000E60046000000490000000000E50000C4
:1002E000000000000000000000000000000000E628
:1002F0000028002B5D00AE00AF00DA0281FFD9F1CB
:10030000DB20A4A62EAF00A0C000A1C800AED580FF
:10031000A81FD300408D1420000000000000003E04
:100320005B4F5B3E003E6B4F6B3E001C3E7C3E1CB9
:1003300000183C7E3C18001C577D571C001C5E7F3B
:100340005E1C0000183C180000FFE7C3E7FF000038
:100350001824180000FFE7DBE7FF0030483A060EDC
:1003600000262979292600407F05050700407F05E2
:10037000253F005A3CE73C5A007F3E1C1C08000801
:100380001C1C3E7F0014227F2214005F5F005F5F11
:100390000006097F017F00006689956A0060606041
:1003A00060600094A2FFA2940008047E040800107C
:1003B000207E20100008082A1C0800081C2A0808B3
:1003C000001E10101010000C1E0C1E0C0030383EC9
:1003D000383000060E3E0E0600000000000000004F
:1003E000005F000000000700070000147F147F1466
:1003F00000242A7F2A12002313086462003649561B
:10040000205000000807030000001C2241000000EB
:1004100041221C00002A1C7F1C2A0008083E0808F4
:100420000000807030000008080808080000006024
:100430006000002010080402003E5149453E0000C3
:10044000427F4000007249494946002141494D33ED
:10045000001814127F10002745454539003C4A49D1
:100460004931004121110907003649494936004602
:100470004949291E0000001400000000403400001B
:100480000000081422410014141414140000412226
:100490001408000201590906003E415D594E007CD6
:1004A0001211127C007F49494936003E41414122E8
:1004B000007F4141413E007F49494941007F090990
:1004C0000901003E41415173007F0808087F000088
:1004D000417F4100002040413F01007F081422413C
:1004E000007F40404040007F021C027F007F0408E4
:1004F000107F003E4141413E007F09090906003E50
:100500004151215E007F0919294600264949493297
:100510000003017F0103003F4040403F001F204097
:10052000201F003F4038403F00631408146300035D
:1005300004780403006159494D4300007F41414163
:1005400000020408102000004141417F0004020124
:100550000204004040404040000003070800002023
:1005600054547840007F2844443800384444442898
:1005700000384444287F0038545454180000087E42
:100580000902001824241C78007F08040478000065
:10059000447D4000002040403D00007F1028440082
:1005A0000000417F4000007C04780478007C08044F
:1005B0000478003844444438007C18242418001877
:1005C0002424187C007C0804040800485454542453
:1005D0000004043F4424003C4040207C001C204098
:1005E000201C003C4030403C004428102844004C73
:1005F0009090907C004464544C44000008364100C4
:1006000000000077000000004136080000020102EF
:100610000402003C2623263C0000000000000000ED
:10062000000000000000000000C0E0F0F8F8180032
:10063000C0F0FCFEFFFFFFFFFFFFFF7E0000000099
:10064000000000000080C0E0E0E0E0E0E0E0E0C0AA
:10065000800000000080C0E0E0E0E0E0E0E0E0C01A
:1006600080000000E0E0C0C0E0E0E0E00000E0E08A
:10067000C0C0E0E0E0E0E0C0800000000080C0E03A
:10068000E0E0E0E0E0E0E0C080000000000000000A
:1006900000000000000000E0F0F0F0E0ECEEF7F306
:1006A0007020007C7C7C7E007E7E7E7F7F7F0000D1
:1006B00080C0E07E5B4F5BFEC00000C000DCD7DE88
:1006C000DEDED7DC00C000000000000000000000FB
:1006D000000000000000000000000000000000001A
:1006E0000000F8FCFEFFE000FFFFFFFFFFFF80FFC0
:1006F000FFFFFFFFFFFFFFFF1F07010000000000DB
:1007000000000000FFFFFF8100000000000081C327
:10071000C3C30000FFFFFF8100000000000081FF55
:10072000FFFF0000FFFFFF01000000000000FFFFCF
:10073000FF010000000001FFFFFF0000FFFFFF9D21
:100740001C1C1C1C1C1C9DDFDFDF000000000000C7
:10075000000000000000000F1F3F7F7F7F7F7F3F72
:100760001E0C001F1F1F3F003F3F3F7F7F7F003059
:100770007B7F7830202030787F3B0003000F7F0F95
:100780000F0F7F0F000300000000000000000000BA
:100790000000000000000000000000000000000059
:1007A0000000030F1F3F3F3F3F1F1F3F3F7F7F7FE3
:1007B0003F3F1F3F7F7F7F7F7C7878381C0F000092
:1007C00000000000000103070707070707070703EA
:1007D00001000000000103070707070707070703D9
:1007E00001000000070707000000000000000707E5
:1007F00007000000000000070707000000010307D2
:1008000007070707070707030100000000000000B3
:1008100000000000000000000000000000000000D8
:1008200000000000000000000000000000000000C8
:1008300000000000000000000000000000000000B8
:1008400000000000000000000000000000000000A8
:100850000000000000000000000C0343006F007265
:10086000006E0065000000100366006F006F0073EB
:1008700000740061006E0000000403090409023BDB
:1008800000020100A0FA09040000010301010009AF
:1008900021110100012240000705810308000A0917
:1008A0000401000103000000092111010001224997
:1008B000000705820320000A120110010000000851
:1008C0005346010001000102000105010902A101D6
:1008D00085020901A1000509190129081500250152
:1008E0009508750181020501093009311581257FBF
:1008F00095027508810609381581257F95017508CF
:100900008106050C0A38021581257F95017508813D
:1009100006C0C005010906A101050719E029E71570
:100920000025019508750181029501750881010571
:1009300007190029FF150026FF009506750881009C
:1009400005081901290595057501910295017503A1
:100950009101C00011241FBECFEFDAE0DEBFCDBF92
:1009600004B603FE27C08091BF049091C004A091FB
:10097000C104B091C2048730904BA740B04BD1F472
:100980001092BF041092C0041092C1041092C204CD
:1009900014BE84B7877F84BF0FB6F894A895809162
:1009A0006000886180936000109260000FBEE0E0FC
:1009B000F8E3099511E0A0E0B1E0E0E8F7E502C056
:1009C00005900D92AC39B107D9F724E0ACE9B1E05C
:1009D00001C01D92AF3BB207E1F70E94DA220C94EE
:1009E000BE2B0C940000CF93DF93AEE3B1E042E462
:1009F00051E061E070E08D91E82FE295EF70F0E05A
:100A000021A18F70EB0102C0CC0FDD1F8A95E2F7A8
:100A1000CE019C2F9095922391A392A1892B82A322
:100A20004A175B0741F7DF91CF91089508950C9421
:100A300016050C941605209A559A289A5D9A0895E1
:100A40005D9808955D9A089528980895289A0895C4
:100A50000E94E4060E94F304A8E3B1E041E050E004
:100A60008D91E82FE295EF70F0E021A18F70BA012F
:100A700002C0660F771F8A95E2F7CB01962F9095FB
:100A8000922391A392A1892B82A371E0AE33B70781
:100A900039F70E941B05E6EAF1E0AEE9B1E01192F8
:100AA0001D9281E0EE3AF807D1F70E94C5068093C7
:100AB000AE010C947C088F929F92AF92BF92CF921E
:100AC000DF92EF92FF920F931F93CF93DF9380916A
:100AD0000101811103C0C4E0D0E002C0C0E0D0E059
:100AE000AE0142565E4F7A018EE3C82E81E0D82EC9
:100AF0008A01912CAA24A394B12C25E0822EF2E441
:100B0000CF16F1E0DF0609F44CC0F60181916F01C8
:100B1000E82FE295EF70F0E021A18F70A50102C0EF
:100B2000440F551F8A95E2F7CA01922F982B91A383
:100B300092A18095892382A350EA5A95F1F7E8E3C0
:100B4000F1E020E040E050E03191A32FA295AF709A
:100B5000B0E090968C9190E03F7002C0959587959B
:100B60003A95E2F780FD07C0C501042E01C0880F49
:100B70000A94EAF702C080E090E0282B4F5F5F4FB5
:100B80004630510509F7F8018081821729F020834A
:100B900080920001992493940E94F3040F5F1F4FE9
:100BA000AECF809100018823B1F081508093000185
:100BB000811103C0CA55DE4F07C08FE99FE001973E
:100BC000F1F700C0000007C0F70191917F019993F0
:100BD0008F5F8430C9F7892DDF91CF911F910F91DD
:100BE000FF90EF90DF90CF90BF90AF909F908F904D
:100BF0000895CF93DF9320910101211103C0C0E03C
:100C0000D0E002C0C4E0D0E00E94FF06009729F0C7
:100C10000297B1F40E94240513C00E942605CA550C
:100C2000DE4F8091BA019091BB01A091BC01B091BF
:100C3000BD0188839983AA83BB8380E090E002C0D2
:100C400081E090E0DF91CF9108950E945B05909143
:100C50000101911103C0E4E0F0E002C0E0E0F0E047
:100C6000EA55FE4F20E030E090E0D901A654BE4F97
:100C70005C914191541391E04C932F5F3F4F24308E
:100C8000310599F72091B301920F9093B301089524
:100C90001F93CF93DF938091AE01882309F449C05D
:100CA0000E945B05182F80910101811103C0C4E0EF
:100CB000D0E002C0C0E0D0E0CA55DE4F44E050E0D2
:100CC000BE0186EB91E00E947728488159816A81B4
:100CD0007B814093B6015093B7016093B801709344
:100CE000B9010E94F905892BC9F00E942005809165
:100CF000AF018F5F8093AF018630A0F0809101013A
:100D0000811103C0E0E0F0E002C0E4E0F0E0EA5569
:100D1000FE4F108211821282138204C00E942205AB
:100D20001092AF010E948408C1E0111122C0C0E0FE
:100D300020C00E942506C1E0811101C0C0E0809161
:100D40000101811103C080E090E002C084E090E0E6
:100D5000FC01EA55FE4F4091B6015091B7016091F8
:100D6000B8017091B90140835183628373830E94FB
:100D700084088C2FDF91CF911F910895E82FF0E028
:100D8000EA55FE4F8081089508958091B001811148
:100D900012C08091D80080618093D8008AE18A9542
:100DA000F1F700C08091D90080FD02C082E001C04F
:100DB00081E08093B00181E09091B001913009F021
:100DC00080E008950C94C5060E94E206809301011C
:100DD0000E94C506882319F00E94F30602C00E94F3
:100DE000F9067894089563E070E082E091E00C9455
:100DF000C01263E070E082E091E00C94C9120F939E
:100E00001F93CF93DF938C0190911B0180911A0166
:100E1000981761F082E090E00E94A213EC01892B08
:100E200039F480911A0180931B0102C0C0E0D0E028
:100E3000012B49F48091B1019091B201892B19F4F1
:100E400080E090E002C081E090E00E94A213892B34
:100E500049F48091B30180931A011092B20110926B
:100E6000B10106C081E090E09093B2018093B1019E
:100E7000CE01DF91CF911F910F9108950C94CF0770
:100E80000C9417059091AE01911101C082E0089574
:100E900060E08DE691E00E94BC0E80918502909109
:100EA0008602A0918702B09188028F309105B0F43C
:100EB000FC01EA5AFF4F0C94682860E085E691E057
:100EC0000BC060E08FE591E007C060E089E591E04C
:100ED00003C060E082E591E00C94CE0E08959C0181
:100EE0003056211540E2340720F0305E21153041A4
:100EF00008F499278C33910528F4FC01E95AFE4F38
:100F0000208101C020E21F922F939F938F93FB01BA
:100F100080811F928F9381811F928F9386E491E04D
:100F20009F938F931F9288E18F938EEB91E09F9315
:100F30008F930E9484288DB79EB70E960FB6F894B3
:100F40009EBF0FBE8DBF089560E08EEB91E00C94C4
:100F5000A00E60E082E191E00C94BC0E8091AE01A5
:100F6000882321F00E9448070C94A4070C94A90739
:100F7000CF93DF93D62FC42F0E94651D882351F095
:100F80008D2F0E94651D882329F08C2FDF91CF9132
:100F90000C94851D8C2FDF91CF910C94A61D0F937F
:100FA0001F93CF93DF938C01EB018A81882319F083
:100FB000C8010E946F070A328DE51807A1F020F4DE
:100FC00009321D4549F031C00B328DE5180771F02B
:100FD0000C321D45F9F029C0CA81CC2339F180E0DB
:100FE0000E9468081DC0CA8181E002C0CA8182E0F7
:100FF000CC2341F00E94851D43E062E081E00E9425
:10100000B8070EC00E94A61D43E062E081E00E9486
:10101000B8070CC0CA8183E0CC2321F00E94851D53
:10102000C0E004C00E94A61D01C0C1E08C2FDF916A
:10103000CF911F910F91089581E0089508950C9428
:101040001E081F93CF93DF9300D000D01F92CDB71F
:10105000DEB749835A836B8330912E0289819A814E
:10106000311114C0662359F0222349F00E947C1EDE
:10107000182F682F89819A810E94231E03C00E9425
:101080004F1E182F69817A81812F04C00E947C1E17
:1010900069817A810F900F900F900F900F90DF91E0
:1010A000CF911F910C94E308FC01262F40815181C0
:1010B0006281738184810C942108CF93DF93EC01CA
:1010C00060E00E945408BE01DF91CF910C941F088C
:1010D000CF93DF9361E070E0EB0102C0CC0FDD1F26
:1010E0008A95E2F78C2F0E94B61FBE0180E090E047
:1010F000DF91CF910C94051D0E94A31F811102C0A6
:101100000E944F200C9440070C94190508950E94EA
:101110006C190E9486082FEF84E39CE021508040E8
:101120009040E1F700C000000C9477210F931F93CB
:10113000CF93DF93EC0161E00E9454088C01BE0163
:101140000E943E07882349F1BE01C8010E94B210E7
:10115000882319F1BE01C8010E9404118823E9F017
:10116000BE01C8010E942F128823B9F08A8188230A
:1011700069F001158CE5180731F00F3D1C4531F47D
:101180000E944F200AC00E94870807C0CE01DF914D
:10119000CF911F910F910C941C0880E0DF91CF91AB
:1011A0001F910F91089508950C94D30881E008953C
:1011B0000C94D608CF93C82F0E94D4088C2F0E947D
:1011C000D808CF91089520E3829FC0011124FC012B
:1011D00026E0729FE00DF11D1124E60FF11DEE0FC8
:1011E000FF1FEB58FE4F859194910895CF93DF93A5
:1011F0000E94E3080E94D309EC018115924580F515
:10120000C11581E5D80708F095C0CF3FD10509F099
:10121000B8F4CD3ED10508F06CC0C53AD10548F40C
:10122000C430D10508F0BBC0C130D10509F4B7C046
:10123000B4C0CE01805E9109089708F4B0C0ADC07B
:10124000C11590E5D90708F059C0C11520E4D207AF
:1012500008F051C0C11580E2D80708F4A0C09DC0B5
:10126000C11596E5D90718F5C11525E5D20708F08F
:101270007AC0C11584E5D80708F070C09E012370BC
:1012800033278C2F86958695C115D34508F057C016
:10129000C1E0D0E002C0CC0FDD1F2A95E2F720E2CA
:1012A000829FC0011124C82BD92BDC6878C0C115DE
:1012B0002AE5D20778F4C11589E5D80708F05DC0A2
:1012C000C11598E5D90708F468C0DC2FCC27C06F9A
:1012D000D06A65C0CE0190568115904208F05DC07D
:1012E0008D2F8F710E94670ADD27D0628F71D82BF6
:1012F00056C0D06554C0DF70D06A51C0CE0174E0D2
:10130000969587957A95E1F783709C2F937021E0ED
:1013100030E002C0220F331F9A95E2F73C68382B69
:10132000CF70C695C69580E2C89FE0011124C22BFC
:10133000D32B35C0DC2FCC27C16FD06A30C0C1E0C1
:10134000D0E002C0CC0FDD1F2A95E2F720E2829F99
:10135000C0011124C82BD92BDA6821C0DC2FCC277F
:10136000C46FD06A1CC08C2F0E94670A8F71C82F6F
:10137000D0E0DC2FCC27D06212C08C2F8F700E945F
:10138000670A94E0D695C7959A95E1F7CF70D0E0BB
:10139000DC2FCC27D069C82B02C0C0E0D0E0CE0142
:1013A000DF91CF9108958238910569F1B0F48133CE
:1013B000910509F46DC048F48932910509F463C0C0
:1013C0008A32910509F469C008958533910509F4BD
:1013D00055C089339105B9F00895833E910569F1AF
:1013E00038F4803E9105B1F0823E910509F10895EF
:1013F000863E9105A9F1873E9105B9F1843E91059C
:1014000009F064C023C02091B00420FD4FC021FD2D
:101410004DC008958091B00480FD44C08091B10416
:1014200080FF44C08091B00484FD42C083EE4DC073
:101430008091B00482FF38C0F5CF8091B00482FD66
:1014400033C08091B10480FD31C0ECCF8091B104F4
:1014500081FF32C08091B00484FD2AC087EE35C080
:101460008091B00483FF26C0F5CF8091B00483FD46
:1014700021C08091B10481FD1FC0ECCF8091B004E8
:1014800085FD1CC01DC08091B00485FD19C016C02B
:101490008091B00486FD16C017C08091B00486FD0F
:1014A00013C010C089E311C082EE0FC080EE0DC0E2
:1014B00080E00BC086EE09C084EE07C089E205C05B
:1014C00085E303C08AE201C081E390E00895909132
:1014D000B00492FF0DC0282F2871283019F4877F9F
:1014E000846006C0282F2471243011F48B7F88601B
:1014F00093FF0DC0282F2871283119F4877E84614D
:1015000006C0282F2471243111F48B7E886120912C
:10151000B10420FF0DC0382F3871383019F4877F9F
:10152000816006C0382F3171313011F48E7F8860B0
:1015300021FF0DC0282F2871283119F4877E816181
:1015400006C0282F2171213111F48E7E886194FD0F
:10155000877E08958091DC0180FF0BC0609121019E
:1015600085E0689FB001112475956795759567951D
:101570002BC081FF09C06091210185E0689FB00107
:1015800011247595679520C082FF07C060912101E5
:1015900085E0689FB001112417C09091DB01992369
:1015A000D1F060912001961788F72091210185E004
:1015B000289F90011124929FA001939F500D112408
:1015C00070E0CA010E9454286038710540F461152A
:1015D000710519F406C065E070E0862F08958FE765
:1015E000089581E008958091DC0180FF08C060913A
:1015F0001D0170E0759567957595679521C081FF10
:1016000006C060911D0170E07595679519C082FF55
:1016100004C060911D0170E010C09091DA0199231F
:1016200099F060911C019617A0F780911D01899F88
:10163000C001112470E00E9454286038710540F404
:101640006115710519F406C061E070E0862F0895F8
:101650008FE7089581E008958D3E21F40E94AA0A43
:10166000819504C08E3E29F40E94AA0A8093E0016D
:1016700008958F3E21F40E94AA0A819504C0803FFC
:1016800029F40E94AA0A8093DF010895893F19F482
:101690000E94F30A05C08A3F31F40E94F30A819543
:1016A0008093E10108958B3F21F40E94F30A819514
:1016B00004C08C3F29F40E94F30A8093E20108954C
:1016C0009FE0980F983078F421E030E0A90102C043
:1016D000440F551F9A95E2F7CA019091DE01892BBC
:1016E0008093DE0108958D3F21F48091DC018160BB
:1016F0000BC08E3F21F48091DC01826005C08F3FDA
:1017000029F48091DC0184608093DC0108958D3E92
:1017100039F49091E00197FF35C01092E00159C073
:101720008E3E29F49091E0011916BCF32BC09091E4
:10173000DF018F3E29F497FF25C01092DF0149C0D9
:10174000803F19F41916CCF31DC09091E101893F37
:1017500029F41916BCF41092E1013BC08A3F19F438
:1017600097FF10C0F8CF8B3F39F49091E20197FFBB
:1017700009C01092E2012DC08C3F21F49091E2014A
:101780001916BCF39FE0980F983080F421E030E008
:10179000A90102C0440F551F9A95E2F7CA0180952E
:1017A0009091DE0189238093DE0113C08D3F21F4E7
:1017B0008091DC018E7F0BC08E3F21F48091DC0193
:1017C0008D7F05C08F3F29F48091DC018B7F809352
:1017D000DC018091DF01811106C08091E00181115F
:1017E00002C01092DB018091E101811106C080915D
:1017F000E201811102C01092DA0108950E942A21AB
:101800002091DF01211104C02091E001222321F069
:101810009093D9018093D8012091E101211104C056
:101820002091E201222321F09093D7018093D601E9
:101830008DED91E00C942615EF92FF920F931F937C
:10184000CF93DF9300D000D000D0CDB7DEB786E0D5
:10185000EDEDF1E0DE01119601900D928A95E1F730
:10186000E090DF01F090E0010091E1011091E201D0
:101870001092DF011092E0011092E1011092E2015A
:10188000E11003C0FF2009F45DC08091D801909160
:10189000D9010E944221AC019091DB01992339F0DA
:1018A0002091220130E02417350758F04BC02091D9
:1018B00023018AE0289F900111242417350718F08E
:1018C00041C09F3F19F09F5F9093DB01EE2061F0D4
:1018D0000E94AA0A1E1414F09FEF01C091E0989F85
:1018E000902D11249093DF01FF2061F00E94AA0A3D
:1018F0001F1414F09FEF01C091E0989F902D1124C8
:101900009093E0013091DF013323E1F02091E00179
:101910002223C1F045EB3403C0011124992319F0AF
:101920009093DF0103C081E08093DF0135EB230357
:10193000C0011124992319F09093E00103C081E0C4
:101940008093E001011103C0112309F45DC080916F
:10195000D6019091D7010E944221AC019091DA0109
:10196000992339F020911E0130E02417350758F0F3
:101970004BC020911F018AE0289F90011124241759
:10198000350718F041C09F3F19F09F5F9093DA012F
:10199000002361F00E94F30A101614F09FEF01C0BB
:1019A00091E0989F902D11249093E101112361F013
:1019B0000E94F30A111614F09FEF01C091E0989F66
:1019C000902D11249093E2013091E1013323E1F055
:1019D0002091E2012223C1F045EB3403C001112420
:1019E000992319F09093E10103C081E08093E10114
:1019F00035EB2303C0011124992319F09093E201E0
:101A000003C081E08093E2018091DF0181110BC06E
:101A10008091E001811107C08091E101811103C033
:101A20008091E20181110E94FE0BEB82FC820D830A
:101A30001E8386E0FE013196ADEDB1E001900D927E
:101A40008A95E1F726960FB6F894DEBF0FBECDBF9C
:101A5000DF91CF911F910F91FF90EF900895EDEDE1
:101A6000F1E086E0DF011D928A95E9F71092DB0133
:101A70001092DA011092DC010895EF92FF920F9319
:101A80001F93CF93DF93EC017B0164E670E088E75E
:101A90000E942B148C01EC0EFD1ECE15DF0561F0AB
:101AA00017FD0AC0FE01849164E670E00E94821472
:101AB0008C012196892B89F30E940615C801DF91BC
:101AC000CF911F910F91FF90EF900895E6EAF2E019
:101AD00080E092E0DF019C011D9221503040E1F74F
:101AE000F093AB04E093AA048FEF9FEF90930F0263
:101AF00080930E0208950E94420780930A0280FD9F
:101B000002C080E801C080E2809309020E9425148F
:101B10006DE070E08CE093E00E943D0D892B11F0A8
:101B200080E0089580910A0263E070E081FD03C0C7
:101B300089E093E002C086E093E00E943D0D892B8E
:101B400079F76DE070E089EF92E00E943D0D892BFE
:101B500039F70E943621DC01CB01805A9541AF4F05
:101B6000BF4F8093A6049093A704A093A804B093BA
:101B7000A9040E94660D81E080930D0280930C02FF
:101B800010920B0208952091090236E0839FC00154
:101B90001124629F800D911D1124811522E092076E
:101BA00014F080E090E08A559D4F9093AB048093B1
:101BB000AA0408952091AA043091AB04205A32401F
:101BC00040910902642F70E0C9010E944028481B1F
:101BD000463010F4240F311D211582E0380710F033
:101BE00020E030E02A553D4F3093AB042093AA0407
:101BF0000895CF93DF938A3011F481E003C08D30D4
:101C000029F480E0DF91CF910C946F0EC62F682FDE
:101C10008091AA049091AB0426E0FC01A3EEB1E010
:101C200001900D922A95E1F7603E30F026E0FC012C
:101C300011922A95E9F70AC0F6E06F9FB0011124CE
:101C4000675E7C4F46E050E00E946E28C11135C0AF
:101C5000C091AA04D091AB0446E050E0BE0183EEEF
:101C600091E00E947728892BB1F1C65AD2409E019B
:101C700085E0369527958A95E1F781E090E0AC0103
:101C800002C0440F551F2A95E2F720910E023091B1
:101C90000F02242B352B259645E0D695C7954A95FE
:101CA000E1F702C0880F991FCA95E2F7822B932BA8
:101CB00090930F0280930E020EC0E091AA04F0915F
:101CC000AB049F012A5F3F4F2E173F0709F2808127
:101CD00080958193F9CFDF91CF910C94DA0DCF935A
:101CE000E82F2091AA043091AB04265A324040914B
:101CF0000902642F70E0C9010E944028481B842F0C
:101D0000EE2359F066E00E943428C82FC150B0F08D
:101D100060E080E20E94F90DF9CFA901480F511D42
:101D20004115524018F080E020E030E0280F311DCE
:101D30002A553D4F3093AB042093AA04CF910895C8
:101D4000FF920F931F93CF93DF93EC01F62EFC01CC
:101D500001900020E9F78F0101501109C017D10748
:101D600028F46F2D89910E94F90DF8CFDF91CF9162
:101D70001F910F91FF9008951F93CF93DF93EC0174
:101D8000162FFE018491882329F0612F0E94F90DFE
:101D90002196F7CFDF91CF911F9108950E94BC0E3D
:101DA00081E00C946F0E80910D028823F9F00E945F
:101DB0003621DC01CB01805A9541AF4FBF4F809354
:101DC000A6049093A704A093A804B093A9048091BB
:101DD0000C0281110BC062E070E087EF92E00E947C
:101DE0003D0D892B19F481E080930C0280910C0247
:101DF00008956F927F928F929F92AF92BF92CF92EF
:101E0000DF92EF92FF920F931F93CF93DF93809116
:101E10000D02882309F4DCC020910E0230910F02DC
:101E20002115310509F4D4C080910B028111D0C075
:101E300061E070E0082F10E03B01082E02C0660C44
:101E4000771C0A94E2F7A90146215721452B11F48A
:101E50008F5FF0CF90910A02980165E0220F331F47
:101E60006A95E1F790FD12C08295880F8076809385
:101E70002601220F232F221F330B31952093290196
:101E8000815E8093270110922A0112C045E03695A9
:101E900027954A95E1F7220F220F220F2093260162
:101EA00010922901295F2093270183E080932A0162
:101EB00024E630E047E050E064E271E088E70E9409
:101EC000B214892B09F084C080910A0280FD23C0DE
:101ED000A80195E0440F551F9A95E1F74A555D4FCB
:101EE00004E610E020E230E060E488E70E94D914C4
:101EF000892B09F06DC00E94D30EE301C095D095E7
:101F000080910E0290910F02C823D923D0930F0223
:101F1000C0930E025DC080E2E9EEF1E0DF011D92A8
:101F20008A95E9F785E0000F111F8A95E1F7A7E987
:101F3000B1E043E951E0992493942D91EA0189910C
:101F4000AE01B801680F711D6A557D4F30E0275111
:101F50003E4FF90197E07F01E21AF30AA92C01C074
:101F6000AA0CEA94EAF77B01B12CE70189917E0182
:101F70008A21892E8B18D82DD770CD2E0D2E000CCE
:101F8000DD08C82F01C0CC0FDA95EAF7D194C194CF
:101F9000D108D7E0CD22DD2401C08695CA94EAF7A6
:101FA0008C2BD0808D298083B39488E0B812DDCF4C
:101FB000915031969F3F79F6C1E0AB39BC0709F0EB
:101FC000BCCF04E610E020E230E049EE51E08CCFD7
:101FD000DF91CF911F910F91FF90EF90DF90CF9005
:101FE000BF90AF909F908F907F906F900895809159
:101FF0000D0290910C02882389F0992369F062E028
:1020000070E085EF92E00E943D0D892B19F08091E0
:102010000C02089510920C0290910C0281E0892725
:1020200008950F931F9380910D02882329F160E09A
:1020300080E00E94C30D0E94AE070E94F90E8091BD
:102040000C028823C9F00E9436210091A604109149
:10205000A7042091A8043091A904DC01CB01801BC6
:10206000910BA20BB30B8F3F9F4FAF4FBF4720F495
:102070001F910F910C94F70F1F910F9108950F93DB
:102080001F93CF93DF93C42FD22FFC01828188232B
:10209000C9F0409312020E942A219093110280936A
:1020A000100280E28C0F883008F057C0C77081E0C2
:1020B00001C0880FCA95EAF7DF91CF911F910F9168
:1020C0000C94141780911202481330C080911002B2
:1020D000909111020E9442218331914038F510E223
:1020E0001D0FCD17B9F080E28C0F883040F4C77017
:1020F00081E001C0880FCA95EAF70E941B171830CB
:1021000028F581E09D2F977001C0880F9A95EAF716
:102110000E941417802F0E940B171830F0F4D7700C
:1021200081E001C0880FDA95EAF70AC080E28C0FDF
:10213000883098F4C77081E001C0880FCA95EAF72B
:10214000DF91CF911F910F910C941B17802FDF917E
:10215000CF911F910F910C940B17DF91CF911F918D
:102160000F9108950F939C01CB01243F4CE5340758
:1021700031F188F4293DFCE53F07D9F02A3D4CE5D3
:10218000340779F1283D3C45A9F506E221EE41EE00
:1021900068ED7CE52BC0263FFCE53F07E1F0A8F0A9
:1021A000273F3C4539F507E225EE46EE67EF7CE533
:1021B0001DC007E225EE45EE69ED7CE517C006E29D
:1021C00021EE40EE64EF7CE511C007E225EE44EE1F
:1021D00065EF7CE50BC006E221EE42EE66EF7CE5A2
:1021E00005C008E221E045EE6AED7CE50E943F1063
:1021F00080E008C0FC018281882319F0109212024D
:1022000001C081E00F910895CF93DF93EC01FB01B2
:102210008281882309F41FC1C230FCE5DF0708F47E
:102220001BC1C6319CE5D90738F09E012B5F3C45A8
:102230002930310508F010C10E94BB1F9093B104F2
:102240008093B004C031ECE5DE0709F4C3C008F0A8
:1022500041C0C8308CE5D80709F49AC0F0F4C43006
:10226000ECE5DE0709F487C068F4C2308CE5D807D6
:1022700009F477C0C330DC4509F0E3C08091B004B5
:10228000826076C0C630ECE5DE0709F46EC008F067
:102290007BC08091B00488606BC0CC308CE5D807DF
:1022A00009F485C068F4CA30ECE5DE0709F474C0AF
:1022B00008F079C00E946C198091B004806858C001
:1022C000CE308CE5D80709F476C008F07FC0809145
:1022D000B0048BC0CC3FECE5DE0709F44FC018F525
:1022E000C3318CE5D80709F47DC078F4C131ECE541
:1022F000DE0709F473C0C231DC4509F0A2C00E94B8
:102300006C198091B0048F7733C0C5318CE5D80744
:1023100009F472C008F486C0CB3FDC4509F091C0D7
:102320008091B1043EC0C115FDE5DF0709F45FC02F
:1023300058F4CE3F9CE5D90709F444C008F43FC0E7
:102340008091B10482602DC0C230FDE5DF0709F441
:1023500075C008F45DC0C330DD4509F072C080E08F
:102360006EC08091B004816003C08091B004806130
:102370008093B00466C08091B00411C08091B10414
:1023800082608093B1045DC08091B0048062F0CF20
:102390008091B0048064ECCF8091B0048860846048
:1023A000E7CF8160EECF8091B0048E7FE1CF809146
:1023B000B0048D7FDDCF8091B004877FD9CF80912D
:1023C000B10418C08091B1048D7FDBCF8091B0043F
:1023D0008F7ECECF8091B0048F7DCACF8091B00424
:1023E0008F7BC6CF8091B004877F8B7FC1CF8091D8
:1023F000B1048D7F8E7FC5CF8091B00482FB2227F0
:1024000020F991E0922790FB82F990FB83F9B0CFFD
:102410008091B104982F909591708E7F892B90FBBD
:1024200081F9AFCF0E946C198091B00487FB2227FD
:1024300020F991E0922790FB87F99ACF81E00E94E2
:1024400051208091B0049091B1040E94CC1F0E9451
:102450006C1980E001C081E0DF91CF910895CF93A6
:10246000DF9386319C4541F5EB010E94FD1E982FBC
:102470008A8120912B0130912C01882379F09A7A5E
:1024800081E009F480E080931302911102C069E2B7
:1024900001C065E3C9010E9498200AC0809113021F
:1024A000811102C069E201C065E3C9010E949A205E
:1024B0000E943E1F80E001C081E0DF91CF9108952E
:1024C0008EE14A9B02C08150E1F74A9BFECF0895FE
:1024D0005A9880E28A95F1F75A9A0895FC012AE009
:1024E0002A95F1F790E020E080E031E0261779F0BE
:1024F00040E14A95F1F7880F4A9B02C0816093271B
:1025000000C0000040E14A95F1F72F5FEFCF20E1D6
:102510002A95F1F729B100C0000030E13A95F1F7B2
:1025200022FB222720F992272081920F9083089581
:10253000EF92FF920F931F93CF93DF931F92CDB72C
:10254000DEB719828C017C01E60EF11C0E151F0509
:1025500059F00E94601268E0CE0101960E946E124E
:10256000F80181938F01F2CF81E09981911180E090
:102570000F90DF91CF911F910F91FF90EF900895F1
:10258000909316028093150260931402529A5A9AFD
:102590000895909316028093150260931402529846
:1025A0005A9AEA9AE9E6F0E080818F7C8083089568
:1025B000615091E001C0990F6A95EAF720E031E09F
:1025C000992361F0492F482319F05A9A232701C013
:1025D0005A9840E24A95F1F79695F2CF222311F0EE
:1025E0005A9A01C05A9880E28A95F1F75A9808954C
:1025F000FF920F931F93CF93DF93EC018C01060F93
:10260000111DC017D10741F0F9900E94681268E0CF
:102610008F2D0E94D812F5CFDF91CF911F910F918E
:10262000FF9008951F920F920FB60F9211240F93EF
:102630001F932F933F934F935F936F937F938F934A
:102640009F93AF93BF93EF93FF93CF93DF931F922B
:10265000CDB7DEB719820E94601267E0CE01019605
:102660000E946E12382F369536953695932F969593
:102670009570232F2570920F292F2370969596958C
:102680008770920F891348C08981811145C080915C
:102690001402831708F440C080E18A95F1F75A9A32
:1026A000529AA2E0AA95F1F700C00091150210918C
:1026B0001602B8E03B9F000D111D11245A98F80135
:1026C0006581662321F0868197810E94F8120E941D
:1026D0006812F0E1FA95F1F75A9852985A9A80E107
:1026E0008A95F1F7D80112966C911297662369F0DA
:1026F00013968D919C9114970E949812D801ED9198
:10270000FC91811105C082E004C0D801ED91FC91DB
:1027100088E080830E9460120F90DF91CF91FF913B
:10272000EF91BF91AF919F918F917F916F915F9149
:102730004F913F912F911F910F910F900FBE0F90CE
:102740001F9018950F931F93CF93DF93209114023E
:1027500030E0281739070CF471C09C0193E0220F78
:10276000331F9A95E1F7C0911502D0911602C20F5E
:10277000D31FF894529A5A9845E04A95F1F7000011
:10278000982F969595708570890F982F93708695E0
:102790008695890F8901082B0E94681284E08A952A
:1027A000F1F700C067E0802F0E94D81240E14A95FF
:1027B000F1F752985A9A4A9902C000C0FCCF87E0BC
:1027C00090E04A9B0EC0019751F4529A5A9AE881C0
:1027D000F98181E08083789481E090E031C000C08D
:1027E000F0CF6D81662381F08E819F810E949812C7
:1027F00081110AC0529A5A9AE881F98182E0808355
:10280000789482E090E01CC00E94601280E28A9579
:10281000F1F75A98529A40E14A95F1F76A81662396
:1028200021F08B819C810E94F8120E946812E8813D
:10283000F9811082789480E090E002C084E090E01A
:10284000DF91CF911F910F9108951092B9008CE004
:102850008093B8000895EF92FF920F931F93CF9348
:10286000DF93182FEB011092BC0084EA8093BC0028
:102870000E942A217C018091BC0087FD0EC0CF3FC1
:102880008FEFD807C1F30E942A218E199F098C1758
:102890009D0788F38EEF9FEF2EC08091B900887F4F
:1028A000883041F08091B900887F803119F08FEF36
:1028B0009FEF21C01093BB0084E88093BC000E946E
:1028C0002A218C018091BC0087FD0CC0CF3F8FEF87
:1028D000D807C1F30E942A21801B910B8C179D07FA
:1028E00088F3D8CF8091B900887F883111F0803487
:1028F000F1F680E090E0DF91CF911F910F91FF9072
:10290000EF9008950F931F93CF93DF93EB01809384
:10291000BB0084E88093BC000E942A218C01809136
:10292000BC0087FD0EC0CF3F8FEFD807C1F30E94D8
:102930002A21801B910B8C179D0788F38EEF9FEF48
:102940000CC02091B900287F81E090E0283211F47A
:1029500080E090E0919581959109DF91CF911F9151
:102960000F910895CF92DF92EF92FF920F931F93F2
:10297000CF93DF936B018A017901B9010E942B1477
:10298000E6010C0D1D1DC017D10761F424E9209349
:10299000BC00DF91CF911F910F91FF90EF90DF90DE
:1029A000CF90089597FDF2CFB70189910E948214CC
:1029B000EACFCF92DF92EF92FF920F931F93CF93C4
:1029C000DF93C62F6A017901B8010E942B1497FD8D
:1029D00011C0B8018C2F0E948214E601EC0CFD1C82
:1029E000CE15DF0539F097FD05C0B80189910E9429
:1029F0008214F6CF24E92093BC00DF91CF911F9180
:102A00000F91FF90EF90DF90CF90089584E980932D
:102A1000BC00089590931C0280931B020895E091DE
:102A20001B02F0911C02309721F00190F081E02D03
:102A3000099480E00895E0911B02F0911C02309708
:102A400021F00280F381E02D09940895E0911B02AA
:102A5000F0911C02309739F022E0DC012C930480C5
:102A6000F581E02D099408952091190230911A0200
:102A70002817390771F090931A0280931902E09198
:102A80001B02F0911C02309721F00680F781E02DA7
:102A900009940895209117023091180228173907D8
:102AA00071F09093180280931702E0911B02F0914D
:102AB0001C02309721F00084F185E02D09940895DF
:102AC0000E94362160932A0270932B0280932C027D
:102AD00090932D0260932602709327028093280220
:102AE00090932902089585B7806885BF85B780686F
:102AF00085BF089581E008950C947A1508950C948B
:102B00007E150C947E150C9481150C947E150C94F6
:102B100085150C947E150E94731581EA9FE10E9431
:102B200088210E9489150C9487150E9421210E94FA
:102B3000280580E00E947B0D0E948D210C94831556
:102B40008F929F92AF92BF92CF92DF92EF92FF92BD
:102B50000F931F93CF93DF93CDB7DEB72A970FB6AE
:102B6000F894DEBF0FBECDBF0E947F150E947E1578
:102B70000E944806982E81110E9460158EE1A82EB1
:102B800082E0B82E00E010E0802E802F0E94BE066A
:102B9000D82EF501C1905F01C826B1F40F5F1F4F19
:102BA0000830110589F78FEF89838A831B820E9481
:102BB0002A218160782F9D838C8349815A816B8182
:102BC0008D810E944B162FC080919A0281FD0E9438
:102BD000C406E12CFF24F3948C2D8F21F1F00E9488
:102BE0007C15882399F0EE828F82DF2081E009F442
:102BF00080E088870E942A218160782F9A878987C0
:102C00004E815F8168858A850E944B16F801E25EDD
:102C1000FD4F8081F826F08206C0E394FF0CF6E0B9
:102C2000EF12DACFBBCF0E94111091100E94D30E89
:102C30000E941C0C0E940F1590911D028917C1F073
:102C40000E940F1580931D022A960FB6F894DEBFDE
:102C50000FBECDBFDF91CF911F910F91FF90EF90ED
:102C6000DF90CF90BF90AF909F908F900C94DA0838
:102C70002A960FB6F894DEBF0FBECDBFDF91CF917D
:102C80001F910F91FF90EF90DF90CF90BF90AF908A
:102C90009F908F900895DF92EF92FF920F931F9372
:102CA000CF93DF93CDB7DEB72B970FB6F894DEBF87
:102CB0000FBECDBFF42E052F162FE72ED82E611193
:102CC0000E941D1FFE01319686E0DF011D928A954C
:102CD000E9F77E2D4F2D502F612F8D2D9E810E9463
:102CE000451C2B960FB6F894DEBF0FBECDBFDF910B
:102CF000CF911F910F91FF90EF90DF900895FC010D
:102D0000808191810E94BE1E0895CF938823B1F1E6
:102D1000C82F8CEF8C0F813AD0F46C2F80912B014F
:102D200090912C010E946220882349F06C2F8091A1
:102D30002B0190912C010E949A200E943E1F6C2F23
:102D400080912B0190912C010E9498200CC080E270
:102D50008C0F883058F4C77081E001C0880FCA9585
:102D6000EAF70E94001FCF910C943E1FCD3E30F039
:102D70008C2F0E942C0BCF910C94FE0BCF910895B9
:102D8000882389F19CEF980F913A40F4682F809145
:102D90002B0190912C010E949A200DC090E2980F77
:102DA000983058F4877091E001C0990F8A95EAF73E
:102DB000892F0E94061F0C943E1F9BE5980F9330AD
:102DC00020F480E090E00C94341598E5980F97314A
:102DD00020F480E090E00C944A158D3E20F00E9493
:102DE000870B0C94FE0B08951F93CF93DF93182F3E
:102DF000EB010E948516209741F08FE99FE0019733
:102E0000F1F700C000002197F6CF812FDF91CF911D
:102E10001F910C94C016893319F060E070E002C075
:102E200060E570E00C94F416882321F00E94001FE6
:102E30000C943E1F0895882321F00E94061F0C94D5
:102E40003E1F0895CF92DF92EF92FF920F931F9350
:102E5000CF93DF937C01D62FC72FFC010281158110
:102E600012951F700E94F61E882399F0002389F0A6
:102E70008C2F807F803421F080E28D0F883048F0E5
:102E800082E00E94881F0E94F61E91E0D82ED9266B
:102E900001C0D12CCC2EC2948FE0C8228C2D90E0A2
:102EA0008C30910508F092C1FC01EB59FF4F0C9456
:102EB00068288C2F807FCF70882311F0C295C07F47
:102EC000002399F0CC2309F46DC180E28D0F883086
:102ED00010F0D11104C08C2F0E94001F03C08C2F52
:102EE0000E94101F0E943E1F5DC18D2F0E94C016C0
:102EF000CC2309F46BC180E28D0F883010F0D11122
:102F000004C08C2F0E94061F03C08C2F0E94161F26
:102F10000E943E1F5BC18C2F807FCF70803211F0EA
:102F2000C295C07FDD2319F0D130C9F025C0002340
:102F300071F0112341F0113031F40E94231F8C2BCA
:102F40000E942B1F43C10E94231F8C2B0EC01123F4
:102F500019F0113009F43AC10E94341F1FC0002338
:102F600039F0163008F032C18C2F0E9414172EC190
:102F7000153008F02BC112C0002319F01123A1F362
:102F800011C1112359F0D93309F01DC1FFEF07EE2C
:102F900013E0F15000401040E1F713C18C2F0E9464
:102FA0001B1714C18D2F002319F00E942C0B02C097
:102FB0000E94870B0E94FE0B11C18C2F837009F0B9
:102FC00047C0011107C12D2F229526952770220F8A
:102FD000220F6D2F6F70862F90E0A0E0B0E0022EE0
:102FE00004C0880F991FAA1FBB1F0A94D2F7D4FFF1
:102FF00010C04FE050E060E070E004C0440F551F87
:10300000661F771F2A95D2F7409550956095709569
:1030100003C040E050E0BA01C695C695C3708A016E
:103020009B01082B192B2A2B3B2BC901B801C2305D
:1030300049F058F4C13019F00E94191DCBC00E940C
:10304000071DC8C00E942B1DC5C00E94051DC2C01F
:10305000002319F08C2F817001C08695882309F414
:10306000B9C02D2F229526952770220F220F6D2F84
:103070006F70862F90E0A0E0B0E0022E04C0880FB1
:10308000991FAA1FBB1F0A94D2F7D4FF10C04FE0AC
:1030900050E060E070E004C0440F551F661F771FCA
:1030A0002A95D2F7409550956095709503C040E001
:1030B00050E0BA01C695C695C3708A019B01082BE2
:1030C000192B2A2B3B2BC901B801C23049F058F407
:1030D000C13019F00E94FE1D7DC00E94EC1D7AC017
:1030E0000E94101E77C00E943F1D74C0CF70002345
:1030F00039F08C2F0E94851D8D2F0E9414176AC0F5
:103100008D2F0E941B178C2F0E94A61D63C0D23FDB
:1031100001F128F4D03F41F0D13FA1F03FC0D33FAF
:10312000F9F0D43F39F13AC0002341F0153008F0EE
:103130004DC08C2F8F710E94CB1D48C0163008F0F7
:1031400045C0F7CF002339F08C2F8F710E94851D69
:103150003DC00023C9F38C2F8F710E94A61D36C07D
:10316000002329F08C2F8F710E94701D2FC00E94A8
:103170004B1D2CC0002349F0CF718C2F0E94851D60
:1031800063E08C2F0E94731F21C081E00E94881F82
:103190001230E0F082E00E94881F18C0002331F056
:1031A000112391F28D2F0E94851610C0112399F2E0
:1031B000D93349F41FEF27EE33E01150204030405F
:1031C000E1F700C000008D2F0E94C01688EF8C0D23
:1031D000843020F40E940F150E94DA08DD20C9F027
:1031E0000E94F21E80FD15C0F70112820E94EC1EA3
:1031F0000E94851DC7010E942A190E94EC1EDF91C2
:10320000CF911F910F91FF90EF90DF90CF900C9492
:10321000A61DDF91CF911F910F91FF90EF90DF904E
:10322000CF9008950F931F93CF93DF93EC016881A4
:1032300079818A810E94C91E8C010E94221E0E94EF
:10324000F31CB801CE010E942217DF91CF911F918C
:103250000F910895CF93DF93EC01988189812B81A1
:103260003C81232B31F08F3F31F481E09F3F19F4F3
:1032700003C081E001C080E080FD19C0CE010E9442
:10328000960881110CC00E94F61E882381F08A8165
:10329000882369F082E0DF91CF910C94881FCE01E2
:1032A0000E941219CE01DF91CF910C945D08DF913D
:1032B000CF9108950E941D1F0E94201F0E943E1F53
:1032C0000E942F0D0C94FE0B80912B0190912C01EC
:1032D0000E949C200C945A190E940D1F0C94641992
:1032E000E92FE295EF704E2F50E0FA013297EE3061
:1032F000F105B0F4EF58FF4F0C946828803F91F02F
:1033000018F4883E68F40EC0843F51F40BC0883E28
:1033100048F0813F29F406C093FB882780F908957F
:1033200080E0089581E008950E94BE1E0E947019F9
:103330000895CF93DF9300D000D01F92CDB7DEB7B2
:103340000F900F900F900F900F90DF91CF910895F5
:10335000CF93DF9300D000D000D0CDB7DEB7269654
:103360000FB6F894DEBF0FBECDBFDF91CF910895A9
:103370001F93CF93DF93C0912F0216E0809130020C
:10338000C81799F0D0E01C9FF0011D9FF00D11248B
:10339000EF5CFD4F40815181628173818481958111
:1033A0000E94A8192196C770E9CFDF91CF911F9194
:1033B00008954091610250916202609163027091A0
:1033C000640280916502909166020C94A819209184
:1033D0002F029091300256E02917A9F030E0529F59
:1033E000F001539FF00D1124EF5CFD4F71817613B6
:1033F00006C07081781303C07281741306C02F5FFA
:103400003F4F2770E9CF80E0089581E008950F9342
:103410001F93CF93DF938091660282958F7009F09E
:103420005DC080916302882309F458C080912F0207
:10343000109130026091610270916202C091640249
:10344000D091650291E06F3F09F090E0292F06E0EE
:10345000811709F443C0209721F07F3F21F030E02D
:1034600003C031E001C0322F90E030FD34C0089F2E
:10347000F001099FF00D1124DF01AF5CBD4F1196E3
:103480003C911197371327C03C91361324C01296F4
:103490003C91129731111FC013964D915C91149776
:1034A0004C1B5D0B43315140B0F4809166028F702C
:1034B000806180936602EA5CFD4F80818F7080613D
:1034C000808381E692E00E942A19DF91CF911F91BB
:1034D0000F910C94B81901968770BACFDF91CF91F4
:1034E0001F910F9108958F929F92AF92BF92CF92AA
:1034F000DF92EF92FF920F931F93CF93DF93CDB79D
:10350000DEB761970FB6F894DEBF0FBECDBF7C016A
:1035100085E0F701DE011D9601900D928A95E1F795
:10352000D701DC9011960C9111971296CC90909146
:10353000610220916202409164025091650241153E
:10354000510531F02F3F31F481E09F3F19F403C062
:1035500081E001C080E080FD67C1F7018380948035
:1035600081E6A82E82E0B82E10916302B401641B9C
:10357000750BAB01112309F423C180916602382F2A
:10358000307F4331514008F0DCC031118AC0021352
:1035900014C0D91212C01C2DC1100FC08F708061D1
:1035A000809366020E94D919C5010E942A19809150
:1035B0006602D70115968C9354C18114910439F099
:1035C0000F3F39F481E0BFEFDB1203C003C081E09D
:1035D00001C080E080FD03C081E08C2502C080E056
:1035E00090E080FF10C04C2D602F8D2D0E94E719B8
:1035F000882349F081E692E00E942A19E1E6F2E090
:1036000086E0DF01AFC0892839F00F3F39F481E04F
:10361000BFEFDB1203C003C081E001C080E080FD8A
:1036200003C081E08C2502C080E090E0E82FE170CB
:10363000BE2E80FF2CC04C2D602F8D2D0E94E719CF
:10364000182F811124C0DD860E878D859E850E94EE
:10365000BE1E292F22952F70223018F0243090F4AE
:1036600005C09F7059F0811109C0FBC09F7031F0F7
:10367000D70115969C91907F09F4F3C0805E883045
:1036800008F4EFC0C7010E942A191B2DEAC01C2DA7
:10369000CC2009F4E6C080916602816080936602C6
:1036A00066C0021312C0D91210C0C1100EC0F701BB
:1036B0008583C7010E942A1986E0F701A1E6B2E0DE
:1036C00001900D928A95E1F7CAC0DD860E878D853F
:1036D0009E850E949419882379F1CC2069F120916C
:1036E0006602822F82958F7090E0029774F080912D
:1036F00061029091620298878F8319869B868A86E1
:103700002C87CE0107960E942A1986E0F701A1E6D0
:10371000B2E001900D928A95E1F70E94071A0E948B
:10372000D9190DC0021729F1DD860E878D859E857A
:103730000E94941981112CC0C7010E942A1911E01E
:1037400090C03111EFCF782D998A888A4D2D502F56
:103750006C2D89890E94991981E692E00E942A19AC
:1037600086E0D5011D928A95E9F70E94D91910E0EB
:1037700078C0D912D9CFC110D7CFF7018583C7013F
:103780000E942A1986E0D5011D928A95E9F769C041
:10379000CC2091F220916602822F82958F7090E06A
:1037A00002970CF4B2CF80916102909162029A83E9
:1037B00089831B829D828C822E83CE010196A3CFAA
:1037C0006331714010F51C2DCC2009F4B5CF0213E4
:1037D0000BC0D91209C086E0F701A1E6B2E0019062
:1037E0000D928A95E1F73DC0DD860E878D859E8519
:1037F0000E949419811189CF809166028160809323
:103800006602C7010E942A192CC0782D998A888ADD
:103810004D2D502F6C2D89890E94991986E0F50154
:1038200011928A95E9F71BC0CC2009F485CFDD867B
:103830000E878D859E850E949419182F882309F480
:103840007BCF86E0F701A1E6B2E001900D928A9568
:10385000E1F781E692E00E947F160E94071A0E941B
:10386000D919812F61960FB6F894DEBF0FBECDBF78
:10387000DF91CF911F910F91FF90EF90DF90CF904C
:10388000BF90AF909F908F9008951F93CF93DF9339
:10389000CDB7DEB72C970FB6F894DEBF0FBECDBF05
:1038A0004F83588769877A878B879C87CE010796D5
:1038B0000E94731A8823D1F09F8188852A853B85D1
:1038C000232B31F08F3F31F481E09F3F19F403C087
:1038D00081E001C080E080FD47C04F815885698547
:1038E0007A858B859C850E94A8193EC086E0FE01E2
:1038F0003796DE01119601900D928A95E1F7FF81CE
:10390000E8856A857B856115710531F0EF3F31F4FB
:1039100081E0FF3F19F403C081E001C080E080FD39
:1039200023C02091300230E0C901019687709927A9
:1039300040912F0250E084179507F1F1F983EA8353
:103940007D836C8396E0929FD001939FB00D1124EC
:10395000AF5CBD4FFE01319601900D929A95E1F753
:10396000809330020E94B81916E080912F02909146
:103970003002891771F1189FC00111248F5C9D4F8F
:103980000E94731A882329F1E0912F021E9FF001F3
:103990001124EF5CFD4F40815181628173818481EC
:1039A00095810E94A81980912F0290E0019687705E
:1039B000992780932F02D9CF0E946C191092300260
:1039C00010922F02E1E6F2E086E0DF011D928A9577
:1039D000E9F72C960FB6F894DEBF0FBECDBFDF918E
:1039E000CF911F910895089508950C94F41C0C94A0
:1039F000F51C0E94F71C6093890270938A028093E1
:103A00008B0290938C020C945A190C94F91C0F930E
:103A10001F930091890210918A0220918B023091AC
:103A20008C02602B712B822B932B1F910F910C9486
:103A3000F91C0F931F930091890210918A02209123
:103A40008B0230918C0260237123822393231F9178
:103A50000F910C94F91C0F931F9300918902109100
:103A60008A0220918B0230918C0260277127822775
:103A700093271F910F910C94F91C0C94F41C0E9435
:103A80003D1D609385027093860280938702909318
:103A900088020C945A1960E070E0CB010C943F1D31
:103AA000611571058105910529F481E0442361F0D8
:103AB00080E00895DC01CB0104C0B695A7959795E9
:103AC00087954A95D2F781700895482F60918502B5
:103AD0007091860280918702909188020C94501D0B
:103AE0000F931F9341E050E060E070E08A019B017A
:103AF00004C0000F111F221F331F8A95D2F7C9017E
:103B0000B8011F910F910C943F1D0F931F9341E03B
:103B100050E060E070E004C0440F551F661F771F3F
:103B20008A95D2F78091850290918602A0918702B2
:103B3000B09188028A019B01082B192B2A2B3B2B61
:103B4000C901B8011F910F910C943F1D0F931F9352
:103B500041E050E060E070E004C0440F551F661F74
:103B6000771F8A95D2F74095509560957095809112
:103B7000850290918602A0918702B09188028A0105
:103B80009B01082319232A233B23C901B8011F9154
:103B90000F910C943F1D0F931F9341E050E060E0A4
:103BA00070E004C0440F551F661F771F8A95D2F737
:103BB0008091850290918602A0918702B09188023F
:103BC0008A019B01082719272A273B27C901B80129
:103BD0001F910F910C943F1D0F931F93009185022D
:103BE000109186022091870230918802602B712B00
:103BF000822B932B1F910F910C943F1D0F931F93BA
:103C000000918502109186022091870230918802EE
:103C100060237123822393231F910F910C943F1DE6
:103C20000F931F93009185021091860220918702C5
:103C30003091880260277127822793271F910F9167
:103C40000C943F1D0895292F220F920F990F890F71
:103C5000E82FE695E695E695877051E001C0550F8F
:103C60008A95EAF785E0E89FF0011124E959FD4FB4
:103C700020E030E070E04081CB01022E02C096953A
:103C800087950A94E2F7817081958427852384279C
:103C900081932F5F3F4F2530310569F70895292F14
:103CA000220F920F990F890F682F6695669566957A
:103CB000982F977085E0689FB001112440E050E094
:103CC00080E0FB01E40FF51FE959FD4F208130E052
:103CD000092E02C0369527950A94E2F72170332702
:103CE000042E01C0220F0A94EAF7822B4F5F5F4F28
:103CF0004530510531F70895BF92CF92DF92EF9290
:103D0000FF920F931F93CF93DF938C01C090850296
:103D1000D0908602E0908702F0908802809189021C
:103D200090918A02A0918B02B0918C02C82AD92A64
:103D3000EA2AFB2ACFE1D0E0D701C6010C2E04C04D
:103D4000B695A795979587950A94D2F780FD04C0FC
:103D5000219790F7B12C07C0BC2EB8018C2F0E9480
:103D6000F6080197A9F38B2DDF91CF911F910F9149
:103D7000FF90EF90DF90CF90BF900895CF93DF93A7
:103D8000EC010E947C1EBE010E94F608DF91CF91DB
:103D900008951F93CF93DF93EB0190912E02992307
:103DA00021F0CB010E94BE1E13C0882349F0CB0135
:103DB0000E947C1E182F682FCE010E94231E04C073
:103DC000CB010E944F1E182FBE01812F0E94F608C2
:103DD000DF91CF911F91089580918D0285958595F2
:103DE0008595089580918D028770089590918D0238
:103DF000977081E009F480E0089580919902089518
:103E000090919902892B80939902089580959091C1
:103E10009902892380939902089510929902089536
:103E200090919802892B80939802089580959091A3
:103E30009802892380939802089510929802089519
:103E400010929702089580918E02089508950C941F
:103E5000261F0C94271F90918E02981721F08093B3
:103E60008E020C94291F089580918E02882329F0D8
:103E700010928E0280E00C94291F0895E0912B018E
:103E8000F0912C01809199028083E0912B01F091B7
:103E90002C01908180919802892B8083E0912B01E5
:103EA000F0912C01908180919702892B80838091E1
:103EB0008E02882381F0E0912B01F0912C019081FA
:103EC000892B808380912B0190912C010E94562098
:103ED00081110E94341F80912B0190912C010C9430
:103EE0001B150C94261F98E0899F90011124262B06
:103EF00020938D020E94851D80918D028595859568
:103F000085950C94711F10928D0280E00C94711FA6
:103F100020918D028095822380938D02982F977037
:103F200079F430E0482F082E000C550B2417350784
:103F300039F08595859585950E94A61D0C94831F63
:103F4000089580E0089580E090E00E944D2B21E0EC
:103F50008B3E9E4F09F020E0822F089582E090E092
:103F60000C94452B83E090E00C94452B682F83E064
:103F700090E00C94532BCF9384E090E00E94452B6B
:103F8000C82F81E290E00E94452B2C2F30E0A90140
:103F9000582BCA01CF910895CF93C92F682F84E081
:103FA00090E00E94532B6C2F81E290E0CF910C9413
:103FB000532BAB01BC018FE090E00C94652BAB015F
:103FC000BC0183E190E00C94652B60E070E0CB01D4
:103FD0000C94DF1F60E070E0CB010E94D91F0C94AD
:103FE000E51F6BEE7EEF80E090E00E94712B60E0B9
:103FF00082E090E00E94532B60E083E090E00E941A
:10400000532B1092890210928A0210928B02109206
:104010008C0260E084E090E00E94532B60E081E23B
:1040200090E00E94532B60E085E090E00E94532BCB
:1040300060E086E090E00E94532B6FEF87E090E015
:104040000E94532B40E050E0BA0188E090E00E94CB
:10405000652B60E08DE090E00E94532B40E050E043
:10406000BA0188E190E00E94652B60E087E190E072
:104070000E94532B40E050E0BA018CE190E00E9496
:10408000652B60E080E290E00E94532B40E050E01E
:10409000BA0188E190E00E94652B0C94EA1F0C9411
:1040A000F11F682F8EE090E00C94532BFC013296A8
:1040B00097E080E0915029F021912223D9F38F5F7E
:1040C000F9CF0895662349F0FC01329608962191B4
:1040D000621729F0E817F907D1F780E0089581E029
:1040E00008959C01FC0132969FEF80E041914617B4
:1040F00089F09F3F19F4411101C0982F8F5F8630DE
:10410000A9F79F3F39F0F901E90FF11D97FDFA95E5
:104110006283089508959C012A5F3F4FFC0142810C
:10412000461301C01282019682179307B9F70895CA
:104130000C9471200C948B20029626E0FC011192C5
:104140002A95E9F7089508950C94A3200C94A320D0
:10415000CF930E94A6200E9448060E94A420C0E09F
:104160008C2F0E94BE06811104C0CF5FC830C1F7FA
:1041700001C081E0CF9108950C94A3200C94BC2041
:104180008091B604843049F10E94BE2080E00E94F4
:10419000DA0810929B0220E488E190E00FB6F894D0
:1041A000A895809360000FBE2093600083B7817F45
:1041B000846083BF83B7816083BF7894889583B719
:1041C0008E7F83BF0FB6F894A895809160008861B8
:1041D00080936000109260000FBE08950C94A3209D
:1041E0000E946C190E940F150E94DA080C94EE20B0
:1041F0001F920F920FB60F9211248F939F93AF933C
:10420000BF9380919B02811113C08091AC04909167
:10421000AD04A091AE04B091AF044196A11DB11DB3
:104220008093AC049093AD04A093AE04B093AF041C
:10423000BF91AF919F918F910F900FBE0F901F90E4
:10424000189582E084BD93E095BD9AEF97BD809369
:104250006E0008952FB7F8948091AC049091AD044E
:10426000A091AE04B091AF042FBF08952FB7F8947A
:104270006091AC047091AD048091AE049091AF0454
:104280002FBF08959C014FB7F8948091AC04909192
:10429000AD04A091AE04B091AF044FBF821B930B4D
:1042A000089578941F920F920FB60F9211248F9356
:1042B0009F93AF93BF938091AC049091AD04A09174
:1042C000AE04B091AF040196A11DB11D8093AC0462
:1042D0009093AD04A093AE04B093AF04BF91AF919F
:1042E0009F918F910F900FBE0F901F90189587E7A9
:1042F00097E790930108809300089AE088E10FB651
:10430000F894A895809360000FBE90936000FFCF53
:1043100090939D0180939C0108950E94A31F811199
:1043200002C00E944F200E94AE1F80939A020E94FA
:10433000BB1F9093B1048093B0040E94B21F682FFA
:1043400070E080E090E00E94051D60918502709110
:10435000860280918702909188020C943D1D809185
:10436000A4020895089522E02093E9002FEF3091F0
:10437000E800215035FD06C035ED3A95F1F7000013
:104380002111F5CF2091E80025FF0BC040E050E05F
:1043900066E070E00E9496238091E8008E7780931B
:1043A000E8000895CF93DF9321E02093E9002FEFF9
:1043B0003091E800215035FD06C035ED3A95F1F712
:1043C00000002111F5CF2091E80025FF14C0EC0179
:1043D00040E050E068E070E00E9496238091E800A1
:1043E0008E778093E80088E0FE01ACE9B2E00190AE
:1043F0000D928A95E1F7DF91CF910895089580910C
:10440000B504811109C00E9427250E94842580914E
:10441000E20084608093E20008951092B50408954C
:1044200008950895089542E061EC81E00E94A0247F
:1044300042E261EC82E00C94A0248091B8048330C5
:1044400009F460C030F4813071F0823009F499C011
:1044500008958A3009F485C08B3009F46BC0893027
:1044600009F0A7C020C08091B704813A09F0A1C02B
:104470008091E800877F8093E8008091BB04909151
:10448000BC04892B21F468E08CE992E003C060E071
:1044900080E090E070E00E94E1238091E8008B775B
:1044A0008093E80008958091B704813209F081C0BB
:1044B0008091BB049091BC04029708F07AC080916F
:1044C000E800877F8093E8008091E80082FD05C0C6
:1044D0008091B6048111F8CF6CC02091F3008091D7
:1044E000F20090E0922B029729F48091F1008B7FEB
:1044F000813021F48091F1008093A4028091E80042
:104500008B7753C08091B704813A09F052C08091F3
:10451000BB049091BC04892B09F04BC08091E8004A
:10452000877F8093E8008091E80080FFFCCF809136
:10453000370136C08091B7048132D9F58091BB0430
:104540009091BC04892BA9F58091E800877F809326
:10455000E8000E94D5248091B904809337010C941F
:104560006C198091B704813221F58091E800877F32
:104570008093E8000E94D5248091BA048093A5021C
:1045800008958091B704813AA1F48091E800877F73
:104590008093E8008091E80080FFFCCF8091A50225
:1045A0008093F1008091E8008E778093E8000C946E
:1045B000D524089584B7877F84BF0FB6F894A89553
:1045C00080916000886180936000109260000FBE4F
:1045D00090E080E80FB6F8948093610090936100BA
:1045E0000FBE0E948B150E9427250E948425809172
:1045F000E20084608093E20078940E9419280E946F
:1046000095158DE291E00E940A158091B6048530DF
:10461000A9F48091B604853079F40E94C02080917D
:10462000B4048823B1F30E94A820882391F30E9448
:1046300080230E946C19EDCF0E94F0200E94A015EB
:104640000E947F150E947E15E0CF0C942723292F0E
:10465000332723303105C9F060F42130310581F072
:104660002230310509F044C08BE390E02DE738E0BB
:1046700043C021323105E1F02232310549F138C021
:1046800082E190E028EB38E037C09927813091052E
:1046900049F028F0029761F5E9E5F8E005C0E9E79F
:1046A000F8E002C0E7E6F8E0849190E09F0124C0C2
:1046B0006115710541F061307105D1F489E090E038
:1046C00028EA38E019C089E090E02FE838E014C00B
:1046D0006115710541F06130710551F489E490E094
:1046E0002AEC38E009C080E490E023E139E004C01E
:1046F00080E090E020E030E0FA01318320830895EB
:1047000080E189BD82E189BD09B400FEFDCF8091C1
:10471000D8008F7D8093D8008091E00082608093E4
:10472000E0008091E00081FDFCCF0895CF92DF9200
:10473000EF92FF920F931F93CF93DF93EC018B01C6
:104740007A010E94F424811133C0E114F10439F09C
:10475000F70180819181081B190BC80FD91FC12C4B
:10476000D12C0115110519F18091E80085FD16C0C5
:104770008091E8008E778093E800E114F10449F01D
:10478000F70180819181C80ED91ED182C08285E057
:104790000FC00E94F424882321F30AC089918093DA
:1047A000F10001501109FFEFCF1ADF0ADACF80E0E4
:1047B000DF91CF911F910F91FF90EF90DF90CF90FD
:1047C00008952091BD043091BE042617370748F0A4
:1047D0006115710539F42091E8002E772093E800E7
:1047E00001C0B901FC0120E06115710579F18091EA
:1047F000B6048823F1F18530F1F18091E80083FD62
:104800003CC08091E80082FD2EC08091E80080FFCE
:10481000EBCF2091F3008091F20090E0922B611594
:10482000710551F08830910538F421912093F10001
:10483000615071090196F3CF21E0089709F020E05B
:104840008091E8008E778093E800CECF2111CFCF02
:104850000AC08091B604882361F0853061F08091B0
:10486000E80083FD0AC08091E80082FFF2CF80E07B
:10487000089582E0089583E0089581E008952091ED
:10488000BD043091BE042617370748F06115710545
:1048900039F42091E8002E772093E80001C0B90197
:1048A000FC0120E06115710591F18091B604882327
:1048B00009F440C0853009F43FC08091E80083FDD1
:1048C0003DC08091E80082FD2FC08091E80080FF0C
:1048D000E9CF2091F3008091F20090E0922B6115D6
:1048E000710559F08830910540F424912093F1002E
:1048F0003196615071090196F2CF21E0089709F0D5
:1049000020E08091E8008E778093E800CBCF2111E2
:10491000CCCF0AC08091B604882361F0853061F065
:104920008091E80083FD0AC08091E80082FFF2CF09
:1049300080E0089582E0089583E0089581E008957D
:10494000982F973068F59093E900981739F0709197
:10495000EC002091ED005091F00003C0242F762F41
:1049600050E021FD02C09F5FECCF3091EB003E7F15
:104970003093EB003091ED003D7F3093ED003091AE
:10498000EB0031603093EB007093EC002093ED006E
:104990005093F0002091EE0027FDE5CF80E00895D0
:1049A0008F708093E90081E008958091B70487FFBC
:1049B00011C08091E80082FD05C08091B60481118C
:1049C000F8CF11C08091E8008B770BC08091B604BE
:1049D000882349F08091E80080FFF8CF8091E800BB
:1049E0008E778093E80008952091E4003091E500EF
:1049F00095E64091EC00842F817040FF23C08091A8
:104A0000E80080FD1DC08091B604882399F08530B0
:104A100099F08091EB0085FD11C04091E400509128
:104A2000E5002417350729F3915011F09A01E1CFE1
:104A300084E0089582E0089583E0089581E0089578
:104A400080E008954091E80042FFDDCF08950E9484
:104A500095250E949D25E0EEF0E0808181608083B5
:104A6000E8EDF0E080818F77808319BCA7EDB0E09E
:104A70008C918E7F8C9380818F7E80831092B50481
:104A800008950F931F93CF93DF930E9495250E9463
:104A90009D25C8EDD0E088818F77888388818068E4
:104AA000888388818F7D888319BC1092B604109208
:104AB000B2041092B4041092B30400EE10E0F801B6
:104AC00080818B7F808388818160888342E060E081
:104AD00080E00E94A024E1EEF0E080818E7F808360
:104AE000E2EEF0E080818160808380818860808355
:104AF000F80180818E7F8083888180618883DF9147
:104B0000CF911F910F910895E8EDF0E080818F7EA5
:104B10008083E7EDF0E080818160808384E082BF64
:104B200081E08093B5040C944125E8EDF0E08081AC
:104B30008E7F80831092E20008951092DA00109226
:104B4000E10008951F920F920FB60F9211242F9338
:104B50003F934F935F936F937F938F939F93AF9305
:104B6000BF93EF93FF938091E10082FF0BC0809190
:104B7000E20082FF07C08091E1008B7F8093E1001B
:104B80000E9418288091DA0080FF1FC08091D80011
:104B900080FF1BC08091DA008E7F8093DA008091C5
:104BA000D90080FF0DC080E189BD82E189BD09B4D3
:104BB00000FEFDCF81E08093B6040E94FF2105C076
:104BC00019BC1092B6040E940D228091E10080FF72
:104BD00019C08091E20080FF15C08091E2008E7FB5
:104BE0008093E2008091E20080618093E2008091F6
:104BF000D80080628093D80019BC85E08093B60409
:104C00000E9411228091E10084FF30C08091E20077
:104C100084FF2CC080E189BD82E189BD09B400FE1A
:104C2000FDCF8091D8008F7D8093D8008091E100E6
:104C30008F7E8093E1008091E2008F7E8093E2007E
:104C40008091E20081608093E2008091B204882329
:104C500011F084E007C08091E30087FD02C081E08D
:104C600001C083E08093B6040E9412228091E1008B
:104C700083FF29C08091E20083FF25C08091E1007D
:104C8000877F8093E10082E08093B6041092B204A3
:104C90008091E1008E7F8093E1008091E2008E7F21
:104CA0008093E2008091E20080618093E20042E024
:104CB00060E080E00E94A0248091F00088608093F2
:104CC000F0000E941022FF91EF91BF91AF919F9150
:104CD0008F917F916F915F914F913F912F910F90A5
:104CE0000FBE0F901F9018951F920F920FB60F9244
:104CF00011242F933F934F935F936F937F938F93E1
:104D00009F93AF93BF93CF93DF93EF93FF93C091A4
:104D1000E900CF708091EC00D82FD17080FDD0E8F1
:104D20001092E9008091F000877F8093F0007894E2
:104D30000E94B8261092E9008091F000886080936C
:104D4000F000CD2BCF70C093E900FF91EF91DF9180
:104D5000CF91BF91AF919F918F917F916F915F9113
:104D60004F913F912F910F900FBE0F901F9018956C
:104D70001F93CF93DF93CDB7DEB7AA970FB6F89402
:104D8000DEBF0FBECDBFE7EBF4E08091F100819371
:104D900024E0EF3BF207C9F70E941D228091E80052
:104DA00083FF2EC18091B7049091B804492F50E041
:104DB0004A30510508F024C1FA01E158FF4F0C9424
:104DC0006828803821F0823809F01AC108C0809123
:104DD000B3049091B404992389F082600FC080914C
:104DE000BB048F70873008F00BC18093E90080917D
:104DF000EB0085FB882780F91092E9009091E8008C
:104E0000977F9093E8008093F1001092F100D1C059
:104E1000282F2D7F09F0F4C0882319F0823061F02B
:104E2000EFC08091B904813009F0EAC0933009F0F5
:104E300080E08093B4042EC08091B90481112AC00F
:104E40008091BB048F702FEF280F263008F0D8C058
:104E50008093E9002091EB0020FF1CC0933021F4E7
:104E60008091EB00806214C09091EB009061909370
:104E7000EB0021E030E0A90102C0440F551F8A95E4
:104E8000E2F74093EA001092EA008091EB0088601C
:104E90008093EB001092E9008091E800877F809377
:104EA000E8000E94D524ACC08111AAC01091B904B9
:104EB0001F778091E3008078812B8093E3008091BD
:104EC000E800877F8093E8000E94D5248091E80065
:104ED00080FFFCCF8091E30080688093E300111194
:104EE00002C082E001C083E08093B60489C080588C
:104EF000823008F085C08091B9049091BA048C3D4D
:104F000053E0950779F583E08A838AE289834FB776
:104F1000F894DE01139620E03EE051E2E32FF0E04A
:104F200050935700E49120FF03C0E295EF703F5F7C
:104F3000EF708E2F90E0EA3010F0C79601C0C09657
:104F40008D939D932F5F243149F74FBF8091E800E7
:104F5000877F8093E8006AE270E0CE0101960E94AC
:104F6000E12316C06091BB047091BC04AE014F5F99
:104F70005F4F0E942523BC01892B09F441C0909109
:104F8000E800977F9093E80089819A810E943F24EE
:104F90008091E8008B778093E80032C0803881F5FB
:104FA0008091E800877F8093E8008091B20480932D
:104FB000F1008091E8008E7772CF811121C080913D
:104FC000B9049091BA0499270297D4F48091E8002B
:104FD000877F8093E8008091B9048093B2040E9497
:104FE000D5248091B204811106C08091E30087FD31
:104FF00002C081E001C084E08093B6040E941322C5
:105000008091E80083FF0AC08091E800877F809349
:10501000E8008091EB0080628093EB00AA960FB6C7
:10502000F894DEBF0FBECDBFDF91CF911F910895E1
:105030000895CF938091B6048823A1F0C091E90030
:10504000CF709091EC00892F817090FD80E8C82B83
:105050001092E9008091E80083FD0E94B826CF708D
:10506000C093E900CF910895991B79E004C0991F7E
:10507000961708F0961B881F7A95C9F780950895B2
:10508000AA1BBB1B51E107C0AA1FBB1FA617B7076E
:1050900010F0A61BB70B881F991F5A95A9F780958A
:1050A0009095BC01CD01089597FB072E16F400944E
:1050B00007D077FD09D00E94402807FC05D03EF4B8
:1050C000909581959F4F0895709561957F4F0895B4
:1050D000EE0FFF1F0590F491E02D0994FB01DC0118
:1050E00002C005900D9241505040D8F70895FB0141
:1050F000DC0104C08D910190801921F44150504091
:10510000C8F7881B990B0895AEE0B0E0EAE8F8E232
:105110000C94952B0D891E898F89988D26E02C8300
:105120001A83098397FF02C080E090E801979E836D
:105130008D83AE01455E5F4F698D7A8DCE010196FC
:105140000E94B4284D815E8157FD0AC02F813885A9
:10515000421753070CF49A01F801E20FF31F108273
:105160002E96E4E00C94B12BABE0B0E0EAEBF8E271
:105170000C94872B6C017B018A01FC01178216823B
:10518000838181FFCCC1CE0101963C01F601938160
:10519000F70193FD859193FF81917F01882309F4A5
:1051A000BAC1853239F493FD859193FF81917F01D6
:1051B000853229F4B60190E00E94AB2AE7CF912C0A
:1051C000212C312CFFE1F315D8F08B3279F038F433
:1051D000803279F08332A1F4232D20611DC08D32FD
:1051E00061F0803369F4232D216016C0832D826025
:1051F000382EE32DE4603E2E2AC0F32DF8601DC04A
:1052000037FC2DC020ED280F2A3040F08E32B9F443
:1052100036FC81C1232D2064322E19C036FE06C013
:105220008AE0989E200D1124922E11C0EAE02E9E55
:10523000200D1124222EF32DF0623F2E08C08C3653
:1052400021F4832D8068382E02C0883641F4F7019E
:1052500093FD859193FF81917F018111B3CF982FA9
:105260009F7D9554933028F40C5F1F4F9FE39983E3
:105270000DC0833631F0833771F0833509F059C0A2
:1052800021C0F801808189830E5F1F4F8824839499
:10529000912C530113C02801F2E04F0E511CF8016C
:1052A000A080B18036FE03C0692D70E002C06FEFB0
:1052B0007FEFC5010E94A02A4C018201F32DFF77E8
:1052C0003F2E16C0280122E0420E511CF801A0809A
:1052D000B18036FE03C0692D70E002C06FEF7FEF32
:1052E000C5010E94952A4C01F32DF0683F2E8201E2
:1052F00033FC1BC0822D90E088169906B0F4B601ED
:1053000080E290E00E94AB2A2A94F4CFF50137FCAA
:10531000859137FE81915F01B60190E00E94AB2A32
:1053200021102A9421E0821A91088114910471F7C6
:10533000E8C0843611F0893641F5F80137FE07C020
:1053400060817181828193810C5F1F4F08C06081F1
:105350007181072E000C880B990B0E5F1F4FF32DE8
:10536000FF763F2E97FF09C09095809570956195C7
:105370007F4F8F4F9F4FF0683F2E2AE030E0A30110
:105380000E94E72A882E861845C0853731F4232DE0
:105390002F7EB22E2AE030E025C0932D997FB92EC2
:1053A0008F36C1F018F4883579F0B5C0803719F020
:1053B000883721F0B0C0E92FE061BE2EB4FE0DC0E9
:1053C000FB2DF460BF2E09C034FE0AC0292F2660D1
:1053D000B22E06C028E030E005C020E130E002C077
:1053E00020E132E0F801B7FE07C06081718182815F
:1053F00093810C5F1F4F06C06081718180E090E057
:105400000E5F1F4FA3010E94E72A882E8618FB2DEE
:10541000FF773F2E36FE0DC0232D2E7FA22E89143E
:1054200058F434FE0BC032FC09C0832D8E7EA82EAA
:1054300005C0B82CA32C03C0B82C01C0B92CA4FE05
:105440000FC0FE01E80DF11D8081803321F49A2DFB
:10545000997EA92E09C0A2FE06C0B394B39404C0DD
:105460008A2D867809F0B394A3FC11C0A0FE06C073
:10547000B21488F4280C922C9B180EC0B21460F45D
:10548000B60180E290E00E94AB2AB394F7CFB21449
:1054900018F42B1802C0982C212CA4FE10C0B601C1
:1054A00080E390E00E94AB2AA2FE17C0A1FC03C0DB
:1054B00088E790E002C088E590E0B6010CC08A2D34
:1054C000867859F0A1FE02C08BE201C080E2A7FC01
:1054D0008DE2B60190E00E94AB2A891438F4B6013F
:1054E00080E390E00E94AB2A9A94F7CF8A94F3016C
:1054F000E80DF11D8081B60190E00E94AB2A811079
:10550000F5CF222009F442CEB60180E290E00E945D
:10551000AB2A2A94F6CFF6018681978102C08FEFDD
:105520009FEF2B96E2E10C94A32BFC0105906150B8
:1055300070400110D8F7809590958E0F9F1F0895A9
:10554000FC016150704001900110D8F78095909552
:105550008E0F9F1F08950F931F93CF93DF93FB012F
:10556000238121FD03C08FEF9FEF2CC022FF16C0C7
:1055700046815781248135814217530744F4A08125
:10558000B1819D012F5F3F4F318320838C93268112
:1055900037812F5F3F4F3783268314C08B01EC0187
:1055A000FB010084F185E02D0995892BE1F6D801F6
:1055B00016968D919C911797019617969C938E93B2
:1055C0001697CE01DF91CF911F910F910895FA01A7
:1055D000AA27283051F1203181F1E8946F936E7F32
:1055E0006E5F7F4F8F4F9F4FAF4FB1E03ED0B4E023
:1055F0003CD0670F781F891F9A1FA11D680F791F64
:105600008A1F911DA11D6A0F711D811D911DA11D74
:1056100020D009F468943F912AE0269F1124301984
:10562000305D3193DEF6CF010895462F4770405D1F
:105630004193B3E00FD0C9F7F6CF462F4F70405DCE
:105640004A3318F0495D31FD4052419302D0A9F729
:10565000EACFB4E0A6959795879577956795BA9523
:10566000C9F700976105710508959B01AC010A2EE9
:1056700006945795479537952795BA95C9F7620FC0
:10568000731F841F951FA01D0895F999FECF92BD29
:1056900081BDF89A992780B50895A8E1B0E042E06D
:1056A00050E00C94792B262FF999FECF92BD81BD45
:1056B000F89A019700B4021639F01FBA20BD0FB650
:1056C000F894FA9AF99A0FBE08950396272F0E942C
:1056D000542B0E94532B252F0E94542B242F0C94C3
:1056E000542B0196272F0E94542B0C94532BDC0132
:1056F000CB01FC01F999FECF06C0F2BDE1BDF89ADD
:10570000319600B40D9241505040B8F708952F9251
:105710003F924F925F926F927F928F929F92AF9241
:10572000BF92CF92DF92EF92FF920F931F93CF938E
:10573000DF93CDB7DEB7CA1BDB0B0FB6F894DEBF25
:105740000FBECDBF09942A88398848885F846E844B
:105750007D848C849B84AA84B984C884DF80EE8095
:10576000FD800C811B81AA81B981CE0FD11D0FB69E
:10577000F894DEBF0FBECDBFED010895F894FFCFC2
:105780000501B50100000001B301B50104B6010136
:10579000B301B40100000004BA01FFFF2808641E31
:1057A000140A321E0021007F2200038F02AF21D293
:1057B00021B321FE21B22101F4F5F6F731339466CD
:1057C00097C60000000025647825642C206B2532E4
:1057D00064203A20256300202020206162636465F4
:1057E000666768696A6B6C6D6E6F707172737475E1
:1057F000767778797A3132333435363738393052F2
:105800004542545F2D3D5B5D5C233B27602C2E2F72
:0C581000202020000810181810080000CC
:00000001FF
