:100000000C94AA040C94F1040C94F1040C94611364
:100010000C94F1040C94F1040C94F1040C94F1048C
:100020000C94F1040C94F1040C94D1250C94A326A7
:100030000C9427210C94F1040C94F1040C94F10419
:100040000C94F1040C94F1040C94F1040C94F1045C
:100050000C94F1040C9480210C94F1040C94F104A0
:100060000C94F1040C94F1040C94F1040C94F1043C
:100070000C94F1040C94F1040C94F1040C94F1042C
:100080000C94F1040C94F1040C94F1040C94F1041C
:100090000C94F1040C94F1040C94F1040C94F1040C
:1000A0000C94F1040C94F1040C94F1045D076E07B8
:1000B00061076E0765076E076E076E0769076E07B3
:1000C00069076E0769076E076907A817A817DA1787
:1000D000DA1735192118351935192C18C518D618FD
:1000E000D618CD19CD19DF19DF19D619DF19DF1987
:1000F000DF19CD19CD19DB19DF19DF19DB1910272D
:1001000037272F2837272F288327A6272F28FD2793
:100110000C28808182838485868788898A8B8C8D50
:100120008E8F9091929394A0A1A2A3A4A5A6A7A814
:10013000A9AAABACADAEAFB0B1B2B3B4C0C1C2C38B
:10014000C4C5C6C7C8C9CACBCCCDCECFD0D1D2D3F7
:10015000D40041646A757374005261697365004C20
:100160006F7765720044656661756C74004C6179E7
:1001700065723A2000290014001A000800150017C3
:10018000002B6104611600070009000A00E1001D50
:10019000621B00060019000500000000000000E3DB
:1001A000002C002A5D2A00130012000C0018001C0D
:1001B00000340033710F000E000D000B00E5003815
:1001C000723700360010001100000000000000E649
:1001D0000028002B5D29001E021F0220022102229E
:1001E000022B612B610100010034003500E100E1C8
:1001F000000100390034023502000000000000E375
:10020000002C0001002A00270226022502240223D6
:10021000023500310030002F002E002D0035023154
:100220000230022F022E022D02000000000000E624
:10023000002800010029001E001F002000210022CC
:10024000002B612B61500052004F006500E100E17E
:100250000035005100E200E300000000000000E370
:10026000002C0001002A002700260025002400237E
:1002700000E40052004B004A002C002800E5005129
:10028000004E004D004C002A00000000000000E677
:1002900000280001002B003A003B003C003D003EDE
:1002A000002B6144614500000000000000E10000F7
:1002B000620000000000000000000000000000E3F9
:1002C000002C000100010043004200410040003FBB
:1002D00000E60046000000490000000000E50000C4
:1002E000000000000000000000000000000000E628
:1002F000002800010000AE00AF00DA0281FFD9F152
:10030000DB20A4A62EAF00A0C000A1C800AED580FF
:10031000A81FD300408D1420000000000000003E04
:100320005B4F5B3E003E6B4F6B3E001C3E7C3E1CB9
:1003300000183C7E3C18001C577D571C001C5E7F3B
:100340005E1C0000183C180000FFE7C3E7FF000038
:100350001824180000FFE7DBE7FF0030483A060EDC
:1003600000262979292600407F05050700407F05E2
:10037000253F005A3CE73C5A007F3E1C1C08000801
:100380001C1C3E7F0014227F2214005F5F005F5F11
:100390000006097F017F00006689956A0060606041
:1003A00060600094A2FFA2940008047E040800107C
:1003B000207E20100008082A1C0800081C2A0808B3
:1003C000001E10101010000C1E0C1E0C0030383EC9
:1003D000383000060E3E0E0600000000000000004F
:1003E000005F000000000700070000147F147F1466
:1003F00000242A7F2A12002313086462003649561B
:10040000205000000807030000001C2241000000EB
:1004100041221C00002A1C7F1C2A0008083E0808F4
:100420000000807030000008080808080000006024
:100430006000002010080402003E5149453E0000C3
:10044000427F4000007249494946002141494D33ED
:10045000001814127F10002745454539003C4A49D1
:100460004931004121110907003649494936004602
:100470004949291E0000001400000000403400001B
:100480000000081422410014141414140000412226
:100490001408000201590906003E415D594E007CD6
:1004A0001211127C007F49494936003E41414122E8
:1004B000007F4141413E007F49494941007F090990
:1004C0000901003E41415173007F0808087F000088
:1004D000417F4100002040413F01007F081422413C
:1004E000007F40404040007F021C027F007F0408E4
:1004F000107F003E4141413E007F09090906003E50
:100500004151215E007F0919294600264949493297
:100510000003017F0103003F4040403F001F204097
:10052000201F003F4038403F00631408146300035D
:1005300004780403006159494D4300007F41414163
:1005400000020408102000004141417F0004020124
:100550000204004040404040000003070800002023
:1005600054547840007F2844443800384444442898
:1005700000384444287F0038545454180000087E42
:100580000902001824241C78007F08040478000065
:10059000447D4000002040403D00007F1028440082
:1005A0000000417F4000007C04780478007C08044F
:1005B0000478003844444438007C18242418001877
:1005C0002424187C007C0804040800485454542453
:1005D0000004043F4424003C4040207C001C204098
:1005E000201C003C4030403C004428102844004C73
:1005F0009090907C004464544C44000008364100C4
:1006000000000077000000004136080000020102EF
:100610000402003C2623263C0000000000000000ED
:10062000000000000000000000C0E0F0F8F8180032
:10063000C0F0FCFEFFFFFFFFFFFFFF7E0000000099
:10064000000000000080C0E0E0E0E0E0E0E0E0C0AA
:10065000800000000080C0E0E0E0E0E0E0E0E0C01A
:1006600080000000E0E0C0C0E0E0E0E00000E0E08A
:10067000C0C0E0E0E0E0E0C0800000000080C0E03A
:10068000E0E0E0E0E0E0E0C080000000000000000A
:1006900000000000000000E0F0F0F0E0ECEEF7F306
:1006A0007020007C7C7C7E007E7E7E7F7F7F0000D1
:1006B00080C0E07E5B4F5BFEC00000C000DCD7DE88
:1006C000DEDED7DC00C000000000000000000000FB
:1006D000000000000000000000000000000000001A
:1006E0000000F8FCFEFFE000FFFFFFFFFFFF80FFC0
:1006F000FFFFFFFFFFFFFFFF1F07010000000000DB
:1007000000000000FFFFFF8100000000000081C327
:10071000C3C30000FFFFFF8100000000000081FF55
:10072000FFFF0000FFFFFF01000000000000FFFFCF
:10073000FF010000000001FFFFFF0000FFFFFF9D21
:100740001C1C1C1C1C1C9DDFDFDF000000000000C7
:10075000000000000000000F1F3F7F7F7F7F7F3F72
:100760001E0C001F1F1F3F003F3F3F7F7F7F003059
:100770007B7F7830202030787F3B0003000F7F0F95
:100780000F0F7F0F000300000000000000000000BA
:100790000000000000000000000000000000000059
:1007A0000000030F1F3F3F3F3F1F1F3F3F7F7F7FE3
:1007B0003F3F1F3F7F7F7F7F7C7878381C0F000092
:1007C00000000000000103070707070707070703EA
:1007D00001000000000103070707070707070703D9
:1007E00001000000070707000000000000000707E5
:1007F00007000000000000070707000000010307D2
:1008000007070707070707030100000000000000B3
:1008100000000000000000000000000000000000D8
:1008200000000000000000000000000000000000C8
:1008300000000000000000000000000000000000B8
:1008400000000000000000000000000000000000A8
:100850000000000000000000000C0343006F007265
:10086000006E0065000000100366006F006F0073EB
:1008700000740061006E0000000403090409023BDB
:1008800000020100A0FA09040000010301010009AF
:1008900021110100012240000705810308000A0917
:1008A0000401000103000000092111010001224997
:1008B000000705820320000A120110010000000851
:1008C0005346010001000102000105010902A101D6
:1008D00085020901A1000509190129081500250152
:1008E0009508750181020501093009311581257FBF
:1008F00095027508810609381581257F95017508CF
:100900008106050C0A38021581257F95017508813D
:1009100006C0C005010906A101050719E029E71570
:100920000025019508750181029501750881010571
:1009300007190029FF150026FF009506750881009C
:1009400005081901290595057501910295017503A1
:100950009101C00011241FBECFEFDAE0DEBFCDBF92
:1009600004B603FE27C08091BF049091C004A091FB
:10097000C104B091C2048730904BA740B04BD1F472
:100980001092BF041092C0041092C1041092C204CD
:1009900014BE84B7877F84BF0FB6F894A895809162
:1009A0006000886180936000109260000FBEE0E0FC
:1009B000F8E3099511E0A0E0B1E0EEEDF7E502C043
:1009C00005900D92AC39B107D9F724E0ACE9B1E05C
:1009D00001C01D92AF3BB207E1F70E9409230C94BE
:1009E000ED2B0C940000CF93DF93AEE3B1E042E433
:1009F00051E061E070E08D91E82FE295EF70F0E05A
:100A000021A18F70EB0102C0CC0FDD1F8A95E2F7A8
:100A1000CE019C2F9095922391A392A1892B82A322
:100A20004A175B0741F7DF91CF91089508950C9421
:100A300016050C941605209A559A289A5D9A0895E1
:100A40005D9808955D9A089528980895289A0895C4
:100A50000E94E4060E94F304A8E3B1E041E050E004
:100A60008D91E82FE295EF70F0E021A18F70BA012F
:100A700002C0660F771F8A95E2F7CB01962F9095FB
:100A8000922391A392A1892B82A371E0AE33B70781
:100A900039F70E941B05E6EAF1E0AEE9B1E01192F8
:100AA0001D9281E0EE3AF807D1F70E94C5068093C7
:100AB000AE010C94CB088F929F92AF92BF92CF92CF
:100AC000DF92EF92FF920F931F93CF93DF9380916A
:100AD0000101811103C0C4E0D0E002C0C0E0D0E059
:100AE000AE0142565E4F7A018EE3C82E81E0D82EC9
:100AF0008A01912CAA24A394B12C25E0822EF2E441
:100B0000CF16F1E0DF0609F44CC0F60181916F01C8
:100B1000E82FE295EF70F0E021A18F70A50102C0EF
:100B2000440F551F8A95E2F7CA01922F982B91A383
:100B300092A18095892382A350EA5A95F1F7E8E3C0
:100B4000F1E020E040E050E03191A32FA295AF709A
:100B5000B0E090968C9190E03F7002C0959587959B
:100B60003A95E2F780FD07C0C501042E01C0880F49
:100B70000A94EAF702C080E090E0282B4F5F5F4FB5
:100B80004630510509F7F8018081821729F020834A
:100B900080920001992493940E94F3040F5F1F4FE9
:100BA000AECF809100018823B1F081508093000185
:100BB000811103C0CA55DE4F07C08FE99FE001973E
:100BC000F1F700C0000007C0F70191917F019993F0
:100BD0008F5F8430C9F7892DDF91CF911F910F91DD
:100BE000FF90EF90DF90CF90BF90AF909F908F904D
:100BF0000895CF93DF9320910101211103C0C0E03C
:100C0000D0E002C0C4E0D0E00E94FF06009729F0C7
:100C10000297B1F40E94240513C00E942605CA550C
:100C2000DE4F8091BA019091BB01A091BC01B091BF
:100C3000BD0188839983AA83BB8380E090E002C0D2
:100C400081E090E0DF91CF9108950E945B05909143
:100C50000101911103C0E4E0F0E002C0E0E0F0E047
:100C6000EA55FE4F20E030E090E0D901A654BE4F97
:100C70005C914191541391E04C932F5F3F4F24308E
:100C8000310599F72091B301920F9093B301089524
:100C90001F93CF93DF938091AE01882309F449C05D
:100CA0000E945B05182F80910101811103C0C4E0EF
:100CB000D0E002C0C0E0D0E0CA55DE4F44E050E0D2
:100CC000BE0186EB91E00E94A628488159816A8185
:100CD0007B814093B6015093B7016093B801709344
:100CE000B9010E94F905892BC9F00E942005809165
:100CF000AF018F5F8093AF018630A0F0809101013A
:100D0000811103C0E0E0F0E002C0E4E0F0E0EA5569
:100D1000FE4F108211821282138204C00E942205AB
:100D20001092AF010E94D308C1E0111122C0C0E0AF
:100D300020C00E942506C1E0811101C0C0E0809161
:100D40000101811103C080E090E002C084E090E0E6
:100D5000FC01EA55FE4F4091B6015091B7016091F8
:100D6000B8017091B90140835183628373830E94FB
:100D7000D3088C2FDF91CF911F910895E82FF0E0D9
:100D8000EA55FE4F8081089508958091B001811148
:100D900012C08091D80080618093D8008AE18A9542
:100DA000F1F700C08091D90080FD02C082E001C04F
:100DB00081E08093B00181E09091B001913009F021
:100DC00080E008950C94C5060E94E206809301011C
:100DD0000E94C506882319F00E94F30602C00E94F3
:100DE000F9067894089563E070E082E091E00C9455
:100DF0000F1363E070E082E091E00C9418130F93FE
:100E00001F93CF93DF938C0190911B0180911A0166
:100E1000981761F082E090E00E94F113EC01892BB9
:100E200039F480911A0180931B0102C0C0E0D0E028
:100E3000012B49F48091B1019091B201892B19F4F1
:100E400080E090E002C081E090E00E94F113892BE5
:100E500049F48091B30180931A011092B20110926B
:100E6000B10106C081E090E09093B2018093B1019E
:100E7000CE01DF91CF911F910F9108950C94B80787
:100E80000C9417059091AE01911101C082E0089574
:100E900060E08DE691E00E940B0F809185029091B9
:100EA0008602A0918702B09188028F309105B0F43C
:100EB000FC01EA5AFF4F0C94972860E085E691E028
:100EC0000BC060E08FE591E007C060E089E591E04C
:100ED00003C060E082E591E00C941D0F08959C0131
:100EE0003056211540E2340720F0305E21153041A4
:100EF00008F499278C33910528F4FC01E95AFE4F38
:100F0000208101C020E21F922F939F938F93FB01BA
:100F100080811F928F9381811F928F9386E491E04D
:100F20009F938F931F9288E18F938EEB91E09F9315
:100F30008F930E94B3288DB79EB70E960FB6F89484
:100F40009EBF0FBE8DBF089560E08EEB91E00C94C4
:100F5000EF0E60E082E191E00C940B0F8091AE0106
:100F6000882321F00E9448070C94A4070C94A90739
:100F70000F931F93CF93DF938C01EB018A8188231A
:100F800019F0C8010E946F070A328DE51807A1F019
:100F900020F409321D4549F031C00B328DE51807A8
:100FA00071F00C321D45F9F029C0CA81CC2339F10A
:100FB00080E00E9451081DC0CA8181E002C0CA8140
:100FC00082E0CC2341F00E94B41D40E162E081E068
:100FD0000E94B9080EC00E94D51D40E162E081E088
:100FE0000E94B9080CC0CA8180E1CC2321F00E9484
:100FF000B41DC0E004C00E94D51D01C0C1E08C2F0B
:10100000DF91CF911F910F91089581E00895089588
:101010000C9407081F93CF93DF9300D000D01F924A
:10102000CDB7DEB749835A836B8330912E02898115
:101030009A81311114C0662359F0222349F00E948D
:10104000AB1E182F682F89819A810E94521E03C0FF
:101050000E947E1E182F69817A81812F04C00E9410
:10106000AB1E69817A810F900F900F900F900F90B7
:10107000DF91CF911F910C943209FC01262F408102
:1010800051816281738184810C940A08CF93DF932C
:10109000EC0160E00E943D08BE01DF91CF910C940D
:1010A0000808CF93DF9361E070E0EB0102C0CC0F42
:1010B000DD1F8A95E2F78C2F0E94E51FBE0180E0BC
:1010C00090E0DF91CF910C94541D8F929F92AF923C
:1010D000BF92CF92DF92EF92FF920F931F936B011B
:1010E0007C0181E090E0A0E0B0E04C015D0104C033
:1010F000880C991CAA1CBB1C4A95D2F7AC01BD01F7
:1011000004C0440F551F661F771F2A95D2F7482940
:1011100059296A297B2904C0880F991FAA1FBB1F60
:101120000A95D2F78A019B010C211D212E213F2116
:10113000401751076207730739F4BC01CD016C29D0
:101140007D298E299F290AC080959095A095B095FC
:10115000BC01CD016C217D218E219F211F910F911A
:10116000FF90EF90DF90CF90BF90AF909F908F90C7
:1011700008950F93382F262F609185027091860273
:101180008091870290918802042F432F0E94650866
:101190000F910C948E1D0E94D21F811102C00E94DB
:1011A0007E200C9440070C94190508950E94BB19E9
:1011B0000E94D5082FEF84E39CE0215080409040AE
:1011C000E1F700C000000C94A6210F931F93CF936A
:1011D000DF93EC0161E00E943D088C01BE010E949A
:1011E0003E07882349F1BE01C8010E9401118823EE
:1011F00019F1BE01C8010E9453118823E9F0BE0114
:10120000C8010E947E128823B9F08A81882369F080
:1012100001158CE5180731F00F3D1C4531F40E9493
:101220007E200AC00E94D60807C0CE01DF91CF9170
:101230001F910F910C94050880E0DF91CF911F91D1
:101240000F91089508950C94220981E008950C945B
:101250002509CF93C82F0E9423098C2F0E942709AC
:10126000CF91089520E3829FC0011124FC0126E064
:10127000729FE00DF11D1124E60FF11DEE0FFF1F0F
:10128000EB58FE4F859194910895CF93DF930E9480
:1012900032090E94220AEC018115924580F5C115A0
:1012A00081E5D80708F095C0CF3FD10509F0B8F423
:1012B000CD3ED10508F06CC0C53AD10548F4C43024
:1012C000D10508F0BBC0C130D10509F4B7C0B4C026
:1012D000CE01805E9109089708F4B0C0ADC0C11579
:1012E00090E5D90708F059C0C11520E4D20708F0ED
:1012F00051C0C11580E2D80708F4A0C09DC0C11537
:1013000096E5D90718F5C11525E5D20708F07AC08A
:10131000C11584E5D80708F070C09E0123703327FB
:101320008C2F86958695C115D34508F057C0C1E02E
:10133000D0E002C0CC0FDD1F2A95E2F720E2829FA9
:10134000C0011124C82BD92BDC6878C0C1152AE54F
:10135000D20778F4C11589E5D80708F05DC0C1153A
:1013600098E5D90708F468C0DC2FCC27C06FD06A95
:1013700065C0CE0190568115904208F05DC08D2F5A
:101380008F710E94B60ADD27D0628F71D82B56C0AC
:10139000D06554C0DF70D06A51C0CE0174E096951C
:1013A00087957A95E1F783709C2F937021E030E068
:1013B00002C0220F331F9A95E2F73C68382BCF709A
:1013C000C695C69580E2C89FE0011124C22BD32B9D
:1013D00035C0DC2FCC27C16FD06A30C0C1E0D0E06F
:1013E00002C0CC0FDD1F2A95E2F720E2829FC001E8
:1013F0001124C82BD92BDA6821C0DC2FCC27C46F6D
:10140000D06A1CC08C2F0E94B60A8F71C82FD0E002
:10141000DC2FCC27D06212C08C2F8F700E94B60AAE
:1014200094E0D695C7959A95E1F7CF70D0E0DC2F80
:10143000CC27D069C82B02C0C0E0D0E0CE01DF913C
:10144000CF9108958238910569F1B0F48133910507
:1014500009F46DC048F48932910509F463C08A32F9
:10146000910509F469C008958533910509F455C0C3
:1014700089339105B9F00895833E910569F138F4F7
:10148000803E9105B1F0823E910509F10895863EB6
:101490009105A9F1873E9105B9F1843E910509F0C6
:1014A00064C023C02091B00420FD4FC021FD4DC079
:1014B00008958091B00480FD44C08091B10480FF04
:1014C00044C08091B00484FD42C083EE4DC0809141
:1014D000B00482FF38C0F5CF8091B00482FD33C0E4
:1014E0008091B10480FD31C0ECCF8091B10481FFC7
:1014F00032C08091B00484FD2AC087EE35C080914F
:10150000B00483FF26C0F5CF8091B00483FD21C0D5
:101510008091B10481FD1FC0ECCF8091B00485FDA6
:101520001CC01DC08091B00485FD19C016C08091FB
:10153000B00486FD16C017C08091B00486FD13C0AC
:1015400010C089E311C082EE0FC080EE0DC080E0B4
:101550000BC086EE09C084EE07C089E205C085E3B2
:1015600003C08AE201C081E390E008959091B00445
:1015700092FF0DC0282F2871283019F4877F8460CE
:1015800006C0282F2471243011F48B7F886093FFCC
:101590000DC0282F2871283119F4877E846106C078
:1015A000282F2471243111F48B7E88612091B1049D
:1015B00020FF0DC0382F3871383019F4877F8160D3
:1015C00006C0382F3171313011F48E7F886021FFD1
:1015D0000DC0282F2871283119F4877E816106C03B
:1015E000282F2171213111F48E7E886194FD877E30
:1015F00008958091DC0180FF0BC06091210185E09E
:10160000689FB001112475956795759567952BC0F6
:1016100081FF09C06091210185E0689FB00111241C
:101620007595679520C082FF07C06091210185E014
:10163000689FB001112417C09091DB019923D1F06C
:1016400060912001961788F72091210185E0289F5D
:1016500090011124929FA001939F500D112470E0DE
:10166000CA010E9483286038710540F46115710534
:1016700019F406C065E070E0862F08958FE708959D
:1016800081E008958091DC0180FF08C060911D0118
:1016900070E0759567957595679521C081FF06C0C7
:1016A00060911D0170E07595679519C082FF04C0B7
:1016B00060911D0170E010C09091DA01992399F0BA
:1016C00060911C019617A0F780911D01899FC001B0
:1016D000112470E00E9483286038710540F4611580
:1016E000710519F406C061E070E0862F08958FE758
:1016F000089581E008958D3E21F40E94F90A8195B4
:1017000004C08E3E29F40E94F90A8093E0010895F6
:101710008F3E21F40E94F90A819504C0803F29F48C
:101720000E94F90A8093DF010895893F19F40E940D
:10173000420B05C08A3F31F40E94420B8195809391
:10174000E10108958B3F21F40E94420B819504C072
:101750008C3F29F40E94420B8093E20108959FE0A0
:10176000980F983078F421E030E0A90102C0440FCE
:10177000551F9A95E2F7CA019091DE01892B80935B
:10178000DE0108958D3F21F48091DC0181600BC062
:101790008E3F21F48091DC01826005C08F3F29F4E7
:1017A0008091DC0184608093DC0108958D3E39F4E2
:1017B0009091E00197FF35C01092E00159C08E3E34
:1017C00029F49091E0011916BCF32BC09091DF0130
:1017D0008F3E29F497FF25C01092DF0149C0803F5A
:1017E00019F41916CCF31DC09091E101893F29F439
:1017F0001916BCF41092E1013BC08A3F19F497FF1F
:1018000010C0F8CF8B3F39F49091E20197FF09C0E7
:101810001092E2012DC08C3F21F49091E201191643
:10182000BCF39FE0980F983080F421E030E0A901EC
:1018300002C0440F551F9A95E2F7CA018095909116
:10184000DE0189238093DE0113C08D3F21F4809156
:10185000DC018E7F0BC08E3F21F48091DC018D7FF7
:1018600005C08F3F29F48091DC018B7F8093DC01E0
:101870008091DF01811106C08091E001811102C0D9
:101880001092DB018091E101811106C08091E2019B
:10189000811102C01092DA0108950E94592120910D
:1018A000DF01211104C02091E001222321F0909357
:1018B000D9018093D8012091E101211104C0209128
:1018C000E201222321F09093D7018093D6018DED80
:1018D00091E00C947515EF92FF920F931F93CF93A5
:1018E000DF9300D000D000D0CDB7DEB786E0EDEDBD
:1018F000F1E0DE01119601900D928A95E1F7E090FA
:10190000DF01F090E0010091E1011091E2011092FD
:10191000DF011092E0011092E1011092E201E1106A
:1019200003C0FF2009F45DC08091D8019091D901D6
:101930000E947121AC019091DB01992339F0209133
:10194000220130E02417350758F04BC020912301C5
:101950008AE0289F900111242417350718F041C010
:101960009F3F19F09F5F9093DB01EE2061F00E9492
:10197000F90A1E1414F09FEF01C091E0989F902D7A
:1019800011249093DF01FF2061F00E94F90A1F14D7
:1019900014F09FEF01C091E0989F902D1124909337
:1019A000E0013091DF013323E1F02091E0012223B7
:1019B000C1F045EB3403C0011124992319F0909331
:1019C000DF0103C081E08093DF0135EB2303C00119
:1019D0001124992319F09093E00103C081E08093D2
:1019E000E001011103C0112309F45DC08091D6010B
:1019F0009091D7010E947121AC019091DA01992355
:101A000039F020911E0130E02417350758F04BC003
:101A100020911F018AE0289F900111242417350787
:101A200018F041C09F3F19F09F5F9093DA010023A7
:101A300061F00E94420B101614F09FEF01C091E07C
:101A4000989F902D11249093E101112361F00E9441
:101A5000420B111614F09FEF01C091E0989F902D5A
:101A600011249093E2013091E1013323E1F02091C0
:101A7000E2012223C1F045EB3403C0011124992374
:101A800019F09093E10103C081E08093E10135EB0F
:101A90002303C0011124992319F09093E20103C09C
:101AA00081E08093E2018091DF0181110BC0809180
:101AB000E001811107C08091E101811103C0809193
:101AC000E20181110E944D0CEB82FC820D831E838A
:101AD00086E0FE013196ADEDB1E001900D928A9560
:101AE000E1F726960FB6F894DEBF0FBECDBFDF91AB
:101AF000CF911F910F91FF90EF900895EDEDF1E0E0
:101B000086E0DF011D928A95E9F71092DB011092C1
:101B1000DA011092DC010895EF92FF920F931F9368
:101B2000CF93DF93EC017B0164E670E088E70E94CD
:101B30007A148C01EC0EFD1ECE15DF0561F017FD49
:101B40000AC0FE01849164E670E00E94D1148C0109
:101B50002196892B89F30E945515C801DF91CF91F9
:101B60001F910F91FF90EF900895E6EAF2E080E078
:101B700092E0DF019C011D9221503040E1F7F0938B
:101B8000AB04E093AA048FEF9FEF90930F02809332
:101B90000E0208950E94420780930A0280FD02C04F
:101BA00080E801C080E2809309020E9474146DE015
:101BB00070E08CE093E00E948C0D892B11F080E0A6
:101BC000089580910A0263E070E081FD03C089E01E
:101BD00093E002C086E093E00E948C0D892B79F798
:101BE0006DE070E089EF92E00E948C0D892B39F74F
:101BF0000E946521DC01CB01805A9541AF4FBF4F58
:101C00008093A6049093A704A093A804B093A9047A
:101C10000E94B50D81E080930D0280930C0210921A
:101C20000B0208952091090236E0839FC001112420
:101C3000629F800D911D1124811522E0920714F0FE
:101C400080E090E08A559D4F9093AB048093AA0466
:101C500008952091AA043091AB04205A324040915B
:101C60000902642F70E0C9010E946F28481B4630AA
:101C700010F4240F311D211582E0380710F020E008
:101C800030E02A553D4F3093AB042093AA040895C9
:101C9000CF93DF938A3011F481E003C08D3029F4B3
:101CA00080E0DF91CF910C94BE0EC62F682F8091FB
:101CB000AA049091AB0426E0FC01A3EEB1E00190F0
:101CC0000D922A95E1F7603E30F026E0FC0111927A
:101CD0002A95E9F70AC0F6E06F9FB0011124675E0C
:101CE0007C4F46E050E00E949D28C11135C0C09154
:101CF000AA04D091AB0446E050E0BE0183EE91E02F
:101D00000E94A628892BB1F1C65AD2409E0185E0D7
:101D1000369527958A95E1F781E090E0AC0102C005
:101D2000440F551F2A95E2F720910E0230910F02C1
:101D3000242B352B259645E0D695C7954A95E1F796
:101D400002C0880F991FCA95E2F7822B932B9093BC
:101D50000F0280930E020EC0E091AA04F091AB0432
:101D60009F012A5F3F4F2E173F0709F28081809520
:101D70008193F9CFDF91CF910C94290ECF93E82F67
:101D80002091AA043091AB04265A324040910902B6
:101D9000642F70E0C9010E946F28481B842FEE2336
:101DA00059F066E00E946328C82FC150B0F060E08F
:101DB00080E20E94480EF9CFA901480F511D41153C
:101DC000524018F080E020E030E0280F311D2A5505
:101DD0003D4F3093AB042093AA04CF910895FF9216
:101DE0000F931F93CF93DF93EC01F62EFC0101902C
:101DF0000020E9F78F0101501109C017D10728F41D
:101E00006F2D89910E94480EF8CFDF91CF911F91DD
:101E10000F91FF9008951F93CF93DF93EC01162F3E
:101E2000FE018491882329F0612F0E94480E21969B
:101E3000F7CFDF91CF911F9108950E940B0F81E0A2
:101E40000C94BE0E80910D028823F9F00E9465214A
:101E5000DC01CB01805A9541AF4FBF4F8093A60460
:101E60009093A704A093A804B093A90480910C02B6
:101E700081110BC062E070E087EF92E00E948C0D50
:101E8000892B19F481E080930C0280910C02089553
:101E90006F927F928F929F92AF92BF92CF92DF927A
:101EA000EF92FF920F931F93CF93DF9380910D02D8
:101EB000882309F4DCC020910E0230910F02211515
:101EC000310509F4D4C080910B028111D0C061E0CA
:101ED00070E0082F10E03B01082E02C0660C771C52
:101EE0000A94E2F7A90146215721452B11F48F5F8F
:101EF000F0CF90910A02980165E0220F331F6A9596
:101F0000E1F790FD12C08295880F807680932601BC
:101F1000220F232F221F330B319520932901815E3D
:101F20008093270110922A0112C045E0369527952B
:101F30004A95E1F7220F220F220F209326011092DB
:101F40002901295F2093270183E080932A0124E659
:101F500030E047E050E064E271E088E70E9401155C
:101F6000892B09F084C080910A0280FD23C0A8015A
:101F700095E0440F551F9A95E1F74A555D4F04E6E9
:101F800010E020E230E060E488E70E942815892B09
:101F900009F06DC00E94220FE301C095D095809199
:101FA0000E0290910F02C823D923D0930F02C09341
:101FB0000E025DC080E2E9EEF1E0DF011D928A953C
:101FC000E9F785E0000F111F8A95E1F7A7E9B1E075
:101FD00043E951E0992493942D91EA018991AE014E
:101FE000B801680F711D6A557D4F30E027513E4F93
:101FF000F90197E07F01E21AF30AA92C01C0AA0CAB
:10200000EA94EAF77B01B12CE70189917E018A21EC
:10201000892E8B18D82DD770CD2E0D2E000CDD08F3
:10202000C82F01C0CC0FDA95EAF7D194C194D1083A
:10203000D7E0CD22DD2401C08695CA94EAF78C2B27
:10204000D0808D298083B39488E0B812DDCF915081
:1020500031969F3F79F6C1E0AB39BC0709F0BCCFA0
:1020600004E610E020E230E049EE51E08CCFDF9151
:10207000CF911F910F91FF90EF90DF90CF90BF9085
:10208000AF909F908F907F906F90089580910D02F8
:1020900090910C02882389F0992369F062E070E046
:1020A00085EF92E00E948C0D892B19F080910C0233
:1020B000089510920C0290910C0281E089270895F6
:1020C0000F931F9380910D02882329F160E080E037
:1020D0000E94120E0E94AE070E94480F80910C02CF
:1020E0008823C9F00E9465210091A6041091A704DD
:1020F0002091A8043091A904DC01CB01801B910B35
:10210000A20BB30B8F3F9F4FAF4FBF4720F41F91E0
:102110000F910C9446101F910F9108950F931F93E8
:10212000CF93DF93C42FD22FFC0182818823C9F083
:10213000409312020E945921909311028093100241
:1021400080E28C0F883008F057C0C77081E001C072
:10215000880FCA95EAF7DF91CF911F910F910C94E8
:10216000631780911202481330C080911002909141
:1021700011020E9471218331914038F510E21D0F48
:10218000CD17B9F080E28C0F883040F4C77081E041
:1021900001C0880FCA95EAF70E946A17183028F51F
:1021A00081E09D2F977001C0880F9A95EAF70E94F1
:1021B0006317802F0E945A171830F0F4D77081E00F
:1021C00001C0880FDA95EAF70AC080E28C0F8830E8
:1021D00098F4C77081E001C0880FCA95EAF7DF91D3
:1021E000CF911F910F910C946A17802FDF91CF919F
:1021F0001F910F910C945A17DF91CF911F910F915E
:1022000008950F939C01CB01243F4CE5340731F135
:1022100088F4293DFCE53F07D9F02A3D4CE5340719
:1022200079F1283D3C45A9F506E221EE41EE68ED45
:102230007CE52BC0263FFCE53F07E1F0A8F0273FF7
:102240003C4539F507E225EE46EE67EF7CE51DC01B
:1022500007E225EE45EE69ED7CE517C006E221EECA
:1022600040EE64EF7CE511C007E225EE44EE65EF39
:102270007CE50BC006E221EE42EE66EF7CE505C090
:1022800008E221E045EE6AED7CE50E948E1080E0D8
:1022900008C0FC018281882319F01092120201C04B
:1022A00081E00F910895CF93DF93EC01FB018281D0
:1022B000882309F41FC1C230FCE5DF0708F41BC105
:1022C000C6319CE5D90738F09E012B5F3C4529308B
:1022D000310508F010C10E94EA1F9093B104809369
:1022E000B004C031ECE5DE0709F4C3C008F041C01A
:1022F000C8308CE5D80709F49AC0F0F4C430ECE596
:10230000DE0709F487C068F4C2308CE5D80709F409
:1023100077C0C330DC4509F0E3C08091B00482602F
:1023200076C0C630ECE5DE0709F46EC008F07BC06D
:102330008091B00488606BC0CC308CE5D80709F47C
:1023400085C068F4CA30ECE5DE0709F474C008F013
:1023500079C00E94BB198091B004806858C0CE300B
:102360008CE5D80709F476C008F07FC08091B004EE
:102370008BC0CC3FECE5DE0709F44FC018F5C33144
:102380008CE5D80709F47DC078F4C131ECE5DE07AF
:1023900009F473C0C231DC4509F0A2C00E94BB1928
:1023A0008091B0048F7733C0C5318CE5D80709F42C
:1023B00072C008F486C0CB3FDC4509F091C0809123
:1023C000B1043EC0C115FDE5DF0709F45FC058F454
:1023D000CE3F9CE5D90709F444C008F43FC0809182
:1023E000B10482602DC0C230FDE5DF0709F475C07D
:1023F00008F45DC0C330DD4509F072C080E06EC0F6
:102400008091B004816003C08091B00480618093AA
:10241000B00466C08091B00411C08091B1048260A4
:102420008093B1045DC08091B0048062F0CF809150
:10243000B0048064ECCF8091B00488608460E7CF02
:102440008160EECF8091B0048E7FE1CF8091B004A7
:102450008D7FDDCF8091B004877FD9CF8091B1048B
:1024600018C08091B1048D7FDBCF8091B0048F7E46
:10247000CECF8091B0048F7DCACF8091B0048F7B86
:10248000C6CF8091B004877F8B7FC1CF8091B1048C
:102490008D7F8E7FC5CF8091B00482FB222720F9EB
:1024A00091E0922790FB82F990FB83F9B0CF809165
:1024B000B104982F909591708E7F892B90FB81F9B4
:1024C000AFCF0E94BB198091B00487FB222720F96F
:1024D00091E0922790FB87F99ACF81E00E948020BB
:1024E0008091B0049091B1040E94FB1F0E94BB191F
:1024F00080E001C081E0DF91CF910895CF93DF9319
:1025000086319C4541F5EB010E942C1F982F8A8152
:1025100020912B0130912C01882379F09A7A81E067
:1025200009F480E080931302911102C069E201C0B6
:1025300065E3C9010E94C7200AC08091130281117E
:1025400002C069E201C065E3C9010E94C9200E947E
:102550006D1F80E001C081E0DF91CF9108958EE191
:102560004A9B02C08150E1F74A9BFECF08955A98DA
:1025700080E28A95F1F75A9A0895FC012AE02A959B
:10258000F1F790E020E080E031E0261779F040E1BB
:102590004A95F1F7880F4A9B02C08160932700C0DB
:1025A000000040E14A95F1F72F5FEFCF20E12A9537
:1025B000F1F729B100C0000030E13A95F1F722FBB4
:1025C000222720F992272081920F90830895EF927D
:1025D000FF920F931F93CF93DF931F92CDB7DEB778
:1025E00019828C017C01E60EF11C0E151F0559F0B5
:1025F0000E94AF1268E0CE0101960E94BD12F80160
:1026000081938F01F2CF81E09981911180E00F9049
:10261000DF91CF911F910F91FF90EF9008959093CC
:1026200016028093150260931402529A5A9A0895E2
:1026300090931602809315026093140252985A9A4E
:10264000EA9AE9E6F0E080818F7C8083089561500A
:1026500091E001C0990F6A95EAF720E031E09923F3
:1026600061F0492F482319F05A9A232701C05A983C
:1026700040E24A95F1F79695F2CF222311F05A9A4B
:1026800001C05A9880E28A95F1F75A980895FF920E
:102690000F931F93CF93DF93EC018C01060F111D55
:1026A000C017D10741F0F9900E94B71268E08F2D52
:1026B0000E942713F5CFDF91CF911F910F91FF90CB
:1026C00008951F920F920FB60F9211240F931F932C
:1026D0002F933F934F935F936F937F938F939F932A
:1026E000AF93BF93EF93FF93CF93DF931F92CDB739
:1026F000DEB719820E94AF1267E0CE0101960E94F8
:10270000BD12382F369536953695932F9695957040
:10271000232F2570920F292F2370969596958770F9
:10272000920F891348C08981811145C0809114029C
:10273000831708F440C080E18A95F1F75A9A529ABB
:10274000A2E0AA95F1F700C00091150210911602BF
:10275000B8E03B9F000D111D11245A98F8016581C6
:10276000662321F0868197810E9447130E94B71249
:10277000F0E1FA95F1F75A9852985A9A80E18A95C1
:10278000F1F7D80112966C911297662369F01396AF
:102790008D919C9114970E94E712D801ED91FC91C4
:1027A000811105C082E004C0D801ED91FC9188E060
:1027B00080830E94AF120F90DF91CF91FF91EF9134
:1027C000BF91AF919F918F917F916F915F914F9149
:1027D0003F912F911F910F910F900FBE0F901F905F
:1027E00018950F931F93CF93DF932091140230E03D
:1027F000281739070CF471C09C0193E0220F331F96
:102800009A95E1F7C0911502D0911602C20FD31F1D
:10281000F894529A5A9845E04A95F1F70000982F9B
:10282000969595708570890F982F937086958695EB
:10283000890F8901082B0E94B71284E08A95F1F76D
:1028400000C067E0802F0E94271340E14A95F1F70E
:1028500052985A9A4A9902C000C0FCCF87E090E093
:102860004A9B0EC0019751F4529A5A9AE881F98115
:1028700081E08083789481E090E031C000C0F0CFA7
:102880006D81662381F08E819F810E94E712811104
:102890000AC0529A5A9AE881F98182E0808378943A
:1028A00082E090E01CC00E94AF1280E28A95F1F7AE
:1028B0005A98529A40E14A95F1F76A81662321F0CD
:1028C0008B819C810E9447130E94B712E881F98195
:1028D0001082789480E090E002C084E090E0DF9184
:1028E000CF911F910F9108951092B9008CE08093C1
:1028F000B8000895EF92FF920F931F93CF93DF9349
:10290000182FEB011092BC0084EA8093BC000E9457
:1029100059217C018091BC0087FD0EC0CF3F8FEF15
:10292000D807C1F30E9459218E199F098C179D0762
:1029300088F38EEF9FEF2EC08091B900887F88309A
:1029400041F08091B900887F803119F08FEF9FEFBF
:1029500021C01093BB0084E88093BC000E945921E1
:102960008C018091BC0087FD0CC0CF3F8FEFD80752
:10297000C1F30E945921801B910B8C179D0788F38E
:10298000D8CF8091B900887F883111F08034F1F67A
:1029900080E090E0DF91CF911F910F91FF90EF9039
:1029A00008950F931F93CF93DF93EB018093BB00A8
:1029B00084E88093BC000E9459218C018091BC0066
:1029C00087FD0EC0CF3F8FEFD807C1F30E9459217A
:1029D000801B910B8C179D0788F38EEF9FEF0CC027
:1029E0002091B900287F81E090E0283211F480E046
:1029F00090E0919581959109DF91CF911F910F9171
:102A00000895CF92DF92EF92FF920F931F93CF938F
:102A1000DF936B018A017901B9010E947A14E60102
:102A20000C0D1D1DC017D10761F424E92093BC00D3
:102A3000DF91CF911F910F91FF90EF90DF90CF909A
:102A4000089597FDF2CFB70189910E94D114EACF82
:102A5000CF92DF92EF92FF920F931F93CF93DF936A
:102A6000C62F6A017901B8010E947A1497FD11C03E
:102A7000B8018C2F0E94D114E601EC0CFD1CCE1580
:102A8000DF0539F097FD05C0B80189910E94D11486
:102A9000F6CF24E92093BC00DF91CF911F910F91D5
:102AA000FF90EF90DF90CF90089584E98093BC0071
:102AB000089590931C0280931B020895E0911B02DD
:102AC000F0911C02309721F00190F081E02D0994E3
:102AD00080E00895E0911B02F0911C02309721F0F4
:102AE0000280F381E02D09940895E0911B02F0919A
:102AF0001C02309739F022E0DC012C930480F58130
:102B0000E02D099408952091190230911A02281796
:102B1000390771F090931A0280931902E0911B0219
:102B2000F0911C02309721F00680F781E02D099486
:102B3000089520911702309118022817390771F073
:102B40009093180280931702E0911B02F0911C02EF
:102B5000309721F00084F185E02D099408950E94BA
:102B6000652160932A0270932B0280932C0290932C
:102B70002D0260932602709327028093280290937F
:102B80002902089585B7806885BF85B7806885BFAD
:102B9000089581E008950C94C91508950C94CD15FD
:102BA0000C94CD150C94D0150C94CD150C94D41513
:102BB0000C94CD150E94C21580ED9FE10E94B721B3
:102BC0000E94D8150C94D6150E9450210E94280509
:102BD00080E00E94CA0D0E94BC210C94D2158F92F5
:102BE0009F92AF92BF92CF92DF92EF92FF920F939C
:102BF0001F93CF93DF93CDB7DEB72A970FB6F89424
:102C0000DEBF0FBECDBF0E94CE150E94CD150E9423
:102C10004806982E81110E94AF158EE1A82E82E001
:102C2000B82E00E010E0802E802F0E94BE06D82E25
:102C3000F501C1905F01C826B1F40F5F1F4F083046
:102C4000110589F78FEF89838A831B820E9459219E
:102C50008160782F9D838C8349815A816B818D811E
:102C60000E949A162FC080919A0281FD0E94C4068C
:102C7000E12CFF24F3948C2D8F21F1F00E94CB15D1
:102C8000882399F0EE828F82DF2081E009F480E0D2
:102C900088870E9459218160782F9A8789874E8181
:102CA0005F8168858A850E949A16F801E25EFD4F71
:102CB0008081F826F08206C0E394FF0CF6E0EF1264
:102CC000DACFBBCF0E94601091100E94220F0E94A9
:102CD0006B0C0E945E1590911D028917C1F00E9435
:102CE0005E1580931D022A960FB6F894DEBF0FBEC4
:102CF000CDBFDF91CF911F910F91FF90EF90DF90AB
:102D0000CF90BF90AF909F908F900C9429092A96F6
:102D10000FB6F894DEBF0FBECDBFDF91CF911F91EC
:102D20000F91FF90EF90DF90CF90BF90AF909F906A
:102D30008F900895DF92EF92FF920F931F93CF939E
:102D4000DF93CDB7DEB72B970FB6F894DEBF0FBE7B
:102D5000CDBFF42E052F162FE72ED82E61110E941D
:102D60004C1FFE01319686E0DF011D928A95E9F73E
:102D70007E2D4F2D502F612F8D2D9E810E94941CF2
:102D80002B960FB6F894DEBF0FBECDBFDF91CF916B
:102D90001F910F91FF90EF90DF900895FC018081CB
:102DA00091810E94ED1E0895CF938823B1F1C82F21
:102DB0008CEF8C0F813AD0F46C2F80912B01909185
:102DC0002C010E949120882349F06C2F80912B01C7
:102DD00090912C010E94C9200E946D1F6C2F809140
:102DE0002B0190912C010E94C7200CC080E28C0F17
:102DF000883058F4C77081E001C0880FCA95EAF79F
:102E00000E942F1FCF910C946D1FCD3E30F08C2F60
:102E10000E947B0BCF910C944D0CCF910895882389
:102E200089F19CEF980F913A40F4682F80912B0123
:102E300090912C010E94C9200DC090E2980F98300B
:102E400058F4877091E001C0990F8A95EAF7892FAD
:102E50000E94351F0C946D1F9BE5980F933020F452
:102E600080E090E00C94831598E5980F973120F45A
:102E700080E090E00C9499158D3E20F00E94D60BD6
:102E80000C944D0C08951F93CF93DF93182FEB01F3
:102E90000E94D416209741F08FE99FE00197F1F747
:102EA00000C000002197F6CF812FDF91CF911F91B5
:102EB0000C940F17893319F060E070E002C060E5F0
:102EC00070E00C944317882321F00E942F1F0C946C
:102ED0006D1F0895882321F00E94351F0C946D1FEB
:102EE0000895CF92DF92EF92FF920F931F93CF93AB
:102EF000DF937C01D62FC72FFC010281158112952B
:102F00001F700E94251F882399F0002389F08C2FC1
:102F1000807F803421F080E28D0F883048F082E09D
:102F20000E94B71F0E94251F91E0D82ED92601C00C
:102F3000D12CCC2EC2948FE0C8228C2D90E08C3006
:102F4000910508F092C1FC01EB59FF4F0C949728B2
:102F50008C2F807FCF70882311F0C295C07F002313
:102F600099F0CC2309F46DC180E28D0F883010F008
:102F7000D11104C08C2F0E942F1F03C08C2F0E94E0
:102F80003F1F0E946D1F5DC18D2F0E940F17CC2324
:102F900009F46BC180E28D0F883010F0D11104C0AC
:102FA0008C2F0E94351F03C08C2F0E94451F0E944A
:102FB0006D1F5BC18C2F807FCF70803211F0C29566
:102FC000C07FDD2319F0D130C9F025C0002371F096
:102FD000112341F0113031F40E94521F8C2B0E94BA
:102FE0005A1F43C10E94521F8C2B0EC0112319F08F
:102FF000113009F43AC10E94631F1FC0002339F049
:10300000163008F032C18C2F0E9463172EC1153084
:1030100008F02BC112C0002319F01123A1F311C134
:10302000112359F0D93309F01DC1FFEF07EE13E06A
:10303000F15000401040E1F713C18C2F0E946A1735
:1030400014C18D2F002319F00E947B0B02C00E9437
:10305000D60B0E944D0C11C18C2F837009F047C014
:10306000011107C12D2F229526952770220F220FBF
:103070006D2F6F70862F90E0A0E0B0E0022E04C0AC
:10308000880F991FAA1FBB1F0A94D2F7D4FF10C044
:103090004FE050E060E070E004C0440F551F661F31
:1030A000771F2A95D2F7409550956095709503C08B
:1030B00040E050E0BA01C695C695C3708A019B01F5
:1030C000082B192B2A2B3B2BC901B801C23049F020
:1030D00058F4C13019F00E94681DCBC00E94561DE3
:1030E000C8C00E947A1DC5C00E94541DC2C00023E2
:1030F00019F08C2F817001C08695882309F4B9C01E
:103100002D2F229526952770220F220F6D2F6F707D
:10311000862F90E0A0E0B0E0022E04C0880F991F37
:10312000AA1FBB1F0A94D2F7D4FF10C04FE050E093
:1031300060E070E004C0440F551F661F771F2A959A
:10314000D2F7409550956095709503C040E050E0EF
:10315000BA01C695C695C3708A019B01082B192B2D
:103160002A2B3B2BC901B801C23049F058F4C130B9
:1031700019F00E942D1E7DC00E941B1E7AC00E9465
:103180003F1E77C00E948E1D74C0CF70002339F09F
:103190008C2F0E94B41D8D2F0E9463176AC08D2F43
:1031A0000E946A178C2F0E94D51D63C0D23F01F187
:1031B00028F4D03F41F0D13FA1F03FC0D33FF9F018
:1031C000D43F39F13AC0002341F0153008F04DC02A
:1031D0008C2F8F710E94FA1D48C0163008F045C030
:1031E000F7CF002339F08C2F8F710E94B41D3DC0A2
:1031F0000023C9F38C2F8F710E94D51D36C0002388
:1032000029F08C2F8F710E949F1D2FC00E949A1D44
:103210002CC0002349F0CF718C2F0E94B41D63E0B5
:103220008C2F0E94A21F21C081E00E94B71F123084
:10323000E0F082E00E94B71F18C0002331F0112394
:1032400091F28D2F0E94D41610C0112399F2D93318
:1032500049F41FEF27EE33E0115020403040E1F7F2
:1032600000C000008D2F0E940F1788EF8C0D843056
:1032700020F40E945E150E942909DD20C9F00E94F9
:10328000211F80FD15C0F70112820E941B1F0E94A2
:10329000B41DC7010E9479190E941B1FDF91CF91B5
:1032A0001F910F91FF90EF90DF90CF900C94D51D60
:1032B000DF91CF911F910F91FF90EF90DF90CF9012
:1032C00008950F931F93CF93DF93EC016881798169
:1032D0008A810E94F81E8C010E94511E0E94421D8C
:1032E000B801CE010E947117DF91CF911F910F910C
:1032F0000895CF93DF93EC01988189812B813C81E4
:10330000232B31F08F3F31F481E09F3F19F403C04C
:1033100081E001C080E080FD19C0CE010E94E50877
:1033200081110CC00E94251F882381F08A81882387
:1033300069F082E0DF91CF910C94B71FCE010E941B
:103340006119CE01DF91CF910C944608DF91CF91A6
:1033500008950E944C1F0E944F1F0E946D1F0E94E3
:103360007E0D0C944D0C80912B0190912C010E94AC
:10337000CB200C94A9190E943C1F0C94B319E92F7F
:10338000E295EF704E2F50E0FA013297EE30F105E2
:10339000B0F4EF58FF4F0C949728803F91F018F449
:1033A000883E68F40EC0843F51F40BC0883E48F05C
:1033B000813F29F406C093FB882780F9089580E0B7
:1033C000089581E008950E94ED1E0E94BF1908959E
:1033D000CF93DF9300D000D01F92CDB7DEB70F9010
:1033E0000F900F900F900F90DF91CF910895CF9392
:1033F000DF9300D000D000D0CDB7DEB726960FB651
:10340000F894DEBF0FBECDBFDF91CF9108951F931B
:10341000CF93DF93C0912F0216E080913002C8173E
:1034200099F0D0E01C9FF0011D9FF00D1124EF5C7E
:10343000FD4F4081518162817381848195810E9419
:10344000F7192196C770E9CFDF91CF911F910895A9
:103450004091610250916202609163027091640236
:1034600080916502909166020C94F71920912F02C9
:103470009091300256E02917A9F030E0529FF001F8
:10348000539FF00D1124EF5CFD4F7181761306C040
:103490007081781303C07281741306C02F5F3F4F91
:1034A0002770E9CF80E0089581E008950F931F937E
:1034B000CF93DF938091660282958F7009F05DC093
:1034C00080916302882309F458C080912F021091E3
:1034D00030026091610270916202C0916402D091E9
:1034E000650291E06F3F09F090E0292F06E0811717
:1034F00009F443C0209721F07F3F21F030E003C062
:1035000031E001C0322F90E030FD34C0089FF0015F
:10351000099FF00D1124DF01AF5CBD4F11963C9166
:103520001197371327C03C91361324C012963C9153
:10353000129731111FC013964D915C9114974C1B3B
:103540005D0B43315140B0F4809166028F70806111
:1035500080936602EA5CFD4F80818F70806180837A
:1035600081E692E00E947919DF91CF911F910F912E
:103570000C94071A01968770BACFDF91CF911F91F3
:103580000F9108958F929F92AF92BF92CF92DF9248
:10359000EF92FF920F931F93CF93DF93CDB7DEB7D8
:1035A00061970FB6F894DEBF0FBECDBF7C0185E0FA
:1035B000F701DE011D9601900D928A95E1F7D70182
:1035C000DC9011960C9111971296CC90909161021B
:1035D00020916202409164025091650241155105AB
:1035E00031F02F3F31F481E09F3F19F403C081E0B7
:1035F00001C080E080FD67C1F7018380948081E68F
:10360000A82E82E0B82E10916302B401641B750BE2
:10361000AB01112309F423C180916602382F307F5A
:103620004331514008F0DCC031118AC0021314C08C
:10363000D91212C01C2DC1100FC08F7080618093F1
:1036400066020E94281AC5010E94791980916602BB
:10365000D70115968C9354C18114910439F00F3F12
:1036600039F481E0BFEFDB1203C003C081E001C089
:1036700080E080FD03C081E08C2502C080E090E006
:1036800080FF10C04C2D602F8D2D0E94361A88238C
:1036900049F081E692E00E947919E1E6F2E086E0E5
:1036A000DF01AFC0892839F00F3F39F481E0BFEF67
:1036B000DB1203C003C081E001C080E080FD03C0D5
:1036C00081E08C2502C080E090E0E82FE170BE2E02
:1036D00080FF2CC04C2D602F8D2D0E94361A182F84
:1036E000811124C0DD860E878D859E850E94ED1E8A
:1036F000292F22952F70223018F0243090F405C025
:103700009F7059F0811109C0FBC09F7031F0D70143
:1037100015969C91907F09F4F3C0805E883008F480
:10372000EFC0C7010E9479191B2DEAC01C2DCC20C7
:1037300009F4E6C08091660281608093660266C0EB
:10374000021312C0D91210C0C1100EC0F701858338
:10375000C7010E94791986E0F701A1E6B2E0019065
:103760000D928A95E1F7CAC0DD860E878D859E850C
:103770000E94E319882379F1CC2069F12091660237
:10378000822F82958F7090E0029774F08091610291
:103790009091620298878F8319869B868A862C87F0
:1037A000CE0107960E94791986E0F701A1E6B2E002
:1037B00001900D928A95E1F70E94561A0E94281AEC
:1037C0000DC0021729F1DD860E878D859E850E942A
:1037D000E31981112CC0C7010E94791911E090C032
:1037E0003111EFCF782D998A888A4D2D502F6C2D6D
:1037F00089890E94E81981E692E00E94791986E0A1
:10380000D5011D928A95E9F70E94281A10E078C028
:10381000D912D9CFC110D7CFF7018583C7010E9434
:10382000791986E0D5011D928A95E9F769C0CC2007
:1038300091F220916602822F82958F7090E002971C
:103840000CF4B2CF80916102909162029A838983D5
:103850001B829D828C822E83CE010196A3CF633181
:10386000714010F51C2DCC2009F4B5CF02130BC00C
:10387000D91209C086E0F701A1E6B2E001900D92ED
:103880008A95E1F73DC0DD860E878D859E850E9475
:10389000E319811189CF809166028160809366026D
:1038A000C7010E9479192CC0782D998A888A4D2DDC
:1038B000502F6C2D89890E94E81986E0F50111923C
:1038C0008A95E9F71BC0CC2009F485CFDD860E87E9
:1038D0008D859E850E94E319182F882309F47BCFDC
:1038E00086E0F701A1E6B2E001900D928A95E1F73A
:1038F00081E692E00E94CE160E94561A0E94281A73
:10390000812F61960FB6F894DEBF0FBECDBFDF9159
:10391000CF911F910F91FF90EF90DF90CF90BF90CC
:10392000AF909F908F9008951F93CF93DF93CDB763
:10393000DEB72C970FB6F894DEBF0FBECDBF4F8316
:10394000588769877A878B879C87CE0107960E9464
:10395000C21A8823D1F09F8188852A853B85232B35
:1039600031F08F3F31F481E09F3F19F403C081E0D3
:1039700001C080E080FD47C04F81588569857A8508
:103980008B859C850E94F7193EC086E0FE01379624
:10399000DE01119601900D928A95E1F7FF81E8858D
:1039A0006A857B856115710531F0EF3F31F481E067
:1039B000FF3F19F403C081E001C080E080FD23C017
:1039C0002091300230E0C90101968770992740911B
:1039D0002F0250E084179507F1F1F983EA837D8384
:1039E0006C8396E0929FD001939FB00D1124AF5C41
:1039F000BD4FFE01319601900D929A95E1F78093AB
:103A000030020E94071A16E080912F029091300236
:103A1000891771F1189FC00111248F5C9D4F0E947E
:103A2000C21A882329F1E0912F021E9FF001112470
:103A3000EF5CFD4F4081518162817381848195816A
:103A40000E94F71980912F0290E0019687709927C4
:103A500080932F02D9CF0E94BB191092300210928E
:103A60002F02E1E6F2E086E0DF011D928A95E9F798
:103A70002C960FB6F894DEBF0FBECDBFDF91CF916D
:103A80001F910895089508950C94431D0C94441DAE
:103A90000E94461D6093890270938A0280938B0274
:103AA00090938C020C94A9190C94481D0F931F93AA
:103AB0000091890210918A0220918B0230918C0230
:103AC000602B712B822B932B1F910F910C94481D0F
:103AD0000F931F930091890210918A0220918B020B
:103AE00030918C0260237123822393231F910F91C5
:103AF0000C94481D0F931F930091890210918A0224
:103B000020918B0230918C026027712782279327A6
:103B10001F910F910C94481D0C94431D0E948C1D05
:103B20006093850270938602809387029093880247
:103B30000C94A91960E070E0CB010C948E1D0F93DA
:103B40001F9341E050E060E070E08A019B0104C0F7
:103B5000000F111F221F331F8A95D2F7C901B80128
:103B60001F910F910C948E1D0F931F9341E050E015
:103B700060E070E004C0440F551F661F771F8A95F0
:103B8000D2F78091850290918602A0918702B09130
:103B900088028A019B01082B192B2A2B3B2BC90178
:103BA000B8011F910F910C948E1D0F931F9341E04C
:103BB00050E060E070E004C0440F551F661F771F9F
:103BC0008A95D2F7409550956095709580918502C1
:103BD00090918602A0918702B09188028A019B0190
:103BE000082319232A233B23C901B8011F910F91F0
:103BF0000C948E1D0F931F9341E050E060E070E045
:103C000004C0440F551F661F771F8A95D2F7809115
:103C1000850290918602A0918702B09188028A0164
:103C20009B01082719272A273B27C901B8011F91A3
:103C30000F910C948E1D0F931F930091850210918C
:103C400086022091870230918802602B712B822B93
:103C5000932B1F910F910C948E1D0F931F93009126
:103C6000850210918602209187023091880260239C
:103C70007123822393231F910F910C948E1D0F9318
:103C80001F93009185021091860220918702309146
:103C9000880260277127822793271F910F910C9428
:103CA0008E1D0895292F220F920F990F890FE82F4B
:103CB000E695E695E695877051E001C0550F8A9527
:103CC000EAF785E0E89FF0011124E959FD4F20E073
:103CD00030E070E04081CB01022E02C096958795BE
:103CE0000A94E2F781708195842785238427819344
:103CF0002F5F3F4F2530310569F70895292F220F97
:103D0000920F990F890F682F669566956695982F83
:103D1000977085E0689FB001112440E050E080E09A
:103D2000FB01E40FF51FE959FD4F208130E0092E1A
:103D300002C0369527950A94E2F721703327042EA6
:103D400001C0220F0A94EAF7822B4F5F5F4F453084
:103D5000510531F70895BF92CF92DF92EF92FF9213
:103D60000F931F93CF93DF938C01C0908502D09067
:103D70008602E0908702F0908802809189029091FB
:103D80008A02A0918B02B0918C02C82AD92AEA2A11
:103D9000FB2ACFE1D0E0D701C6010C2E04C0B695B6
:103DA000A795979587950A94D2F780FD04C021972F
:103DB00090F7B12C07C0BC2EB8018C2F0E9445098A
:103DC0000197A9F38B2DDF91CF911F910F91FF9058
:103DD000EF90DF90CF90BF900895CF93DF93EC01E9
:103DE0000E94AB1EBE010E944509DF91CF9108954C
:103DF0001F93CF93DF93EB0190912E02992321F033
:103E0000CB010E94ED1E13C0882349F0CB010E9414
:103E1000AB1E182F682FCE010E94521E04C0CB018A
:103E20000E947E1E182FBE01812F0E944509DF913E
:103E3000CF911F91089580918D02859585958595E7
:103E4000089580918D028770089590918D029770EA
:103E500081E009F480E0089580919902089590919D
:103E60009902892B809399020895809590919902E7
:103E70008923809399020895109299020895909150
:103E80009802892B809398020895809590919802CA
:103E900089238093980208951092980208951092B1
:103EA0009702089580918E02089508950C94551FED
:103EB0000C94561F90918E02981721F080938E02D9
:103EC0000C94581F089580918E02882329F0109237
:103ED0008E0280E00C94581F0895E0912B01F09120
:103EE0002C01809199028083E0912B01F0912C01AB
:103EF000908180919802892B8083E0912B01F09131
:103F00002C01908180919702892B808380918E0271
:103F1000882381F0E0912B01F0912C019081892B75
:103F2000808380912B0190912C010E94852081112A
:103F30000E94631F80912B0190912C010C946A15B3
:103F40000C94551F98E0899F90011124262B2093F3
:103F50008D020E94B41D80918D0285958595859571
:103F60000C94A01F10928D0280E00C94A01F209151
:103F70008D028095822380938D02982F977079F41B
:103F800030E0482F082E000C550B2417350739F068
:103F90008595859585950E94D51D0C94B21F089531
:103FA00080E0089580E090E00E947C2B21E08B3E31
:103FB0009E4F09F020E0822F089582E090E00C945B
:103FC000742B83E090E00C94742B682F83E090E0D6
:103FD0000C94822BCF9384E090E00E94742BC82F26
:103FE00081E290E00E94742B2C2F30E0A901582B25
:103FF000CA01CF910895CF93C92F682F84E090E034
:104000000E94822B6C2F81E290E0CF910C94822B46
:10401000AB01BC018FE090E00C94942BAB01BC0190
:1040200083E190E00C94942B60E070E0CB010C9461
:104030000E2060E070E0CB010E9408200C94142058
:104040006BEE7EEF80E090E00E94A02B60E082E0CB
:1040500090E00E94822B60E083E090E00E94822B3F
:104060001092890210928A0210928B0210928C0296
:1040700060E084E090E00E94822B60E081E290E0CA
:104080000E94822B60E085E090E00E94822B60E03D
:1040900086E090E00E94822B6FEF87E090E00E9424
:1040A000822B40E050E0BA0188E090E00E94942B1F
:1040B00060E08DE090E00E94822B40E050E0BA0189
:1040C00088E190E00E94942B60E087E190E00E94FC
:1040D000822B40E050E0BA018CE190E00E94942BEA
:1040E00060E080E290E00E94822B40E050E0BA0164
:1040F00088E190E00E94942B0C9419200C942020CD
:10410000682F8EE090E00C94822BFC01329697E0B1
:1041100080E0915029F021912223D9F38F5FF9CFCC
:104120000895662349F0FC013296089621916217A2
:1041300029F0E817F907D1F780E0089581E00895A4
:104140009C01FC0132969FEF80E04191461789F077
:104150009F3F19F4411101C0982F8F5F8630A9F756
:104160009F3F39F0F901E90FF11D97FDFA95628340
:10417000089508959C012A5F3F4FFC014281461338
:1041800001C01282019682179307B9F708950C9423
:10419000A0200C94BA20029626E0FC0111922A95E8
:1041A000E9F7089508950C94D2200C94D220CF936F
:1041B0000E94D5200E9448060E94D320C0E08C2F88
:1041C0000E94BE06811104C0CF5FC830C1F701C094
:1041D00081E0CF9108950C94D2200C94EB20809133
:1041E000B604843049F10E94ED2080E00E94290944
:1041F00010929B0220E488E190E00FB6F894A89515
:10420000809360000FBE2093600083B7817F84603D
:1042100083BF83B7816083BF7894889583B78E7F8F
:1042200083BF0FB6F894A895809160008861809351
:104230006000109260000FBE08950C94D2200E947E
:10424000BB190E945E150E9429090C941D211F9222
:104250000F920FB60F9211248F939F93AF93BF933A
:1042600080919B02811113C08091AC049091AD04A8
:10427000A091AE04B091AF044196A11DB11D8093F1
:10428000AC049093AD04A093AE04B093AF04BF917F
:10429000AF919F918F910F900FBE0F901F90189527
:1042A00082E084BD93E095BD9AEF97BD80936E0048
:1042B00008952FB7F8948091AC049091AD04A0912B
:1042C000AE04B091AF042FBF08952FB7F89460915A
:1042D000AC047091AD048091AE049091AF042FBFF7
:1042E00008959C014FB7F8948091AC049091AD046F
:1042F000A091AE04B091AF044FBF821B930B089501
:1043000078941F920F920FB60F9211248F939F9360
:10431000AF93BF938091AC049091AD04A091AE0493
:10432000B091AF040196A11DB11D8093AC04909390
:10433000AD04A093AE04B093AF04BF91AF919F9131
:104340008F910F900FBE0F901F90189587E797E7FA
:1043500090930108809300089AE088E10FB6F894E2
:10436000A895809360000FBE90936000FFCF90935C
:104370009D0180939C0108950E94D21F811102C06B
:104380000E947E200E94DD1F80939A020E94EA1FF5
:104390009093B1048093B0040E94E11F682F70E0F5
:1043A00080E090E00E94541D609185027091860229
:1043B00080918702909188020C948C1D8091A402B8
:1043C0000895089522E02093E9002FEF3091E8004E
:1043D000215035FD06C035ED3A95F1F70000211169
:1043E000F5CF2091E80025FF0BC040E050E066E0EB
:1043F00070E00E94C5238091E8008E778093E800EA
:104400000895CF93DF9321E02093E9002FEF3091BF
:10441000E800215035FD06C035ED3A95F1F7000072
:104420002111F5CF2091E80025FF14C0EC0140E0F8
:1044300050E068E070E00E94C5238091E8008E772C
:104440008093E80088E0FE01ACE9B2E001900D92B3
:104450008A95E1F7DF91CF91089508958091B50491
:10446000811109C00E9456250E94B3258091E20067
:1044700084608093E20008951092B5040895089531
:104480000895089542E061EC81E00E94CF2442E269
:1044900061EC82E00C94CF248091B804833009F45D
:1044A00060C030F4813071F0823009F499C0089511
:1044B0008A3009F485C08B3009F46BC0893009F06B
:1044C000A7C020C08091B704813A09F0A1C08091B3
:1044D000E800877F8093E8008091BB049091BC0442
:1044E000892B21F468E08CE992E003C060E080E071
:1044F00090E070E00E9410248091E8008B77809318
:10450000E80008958091B704813209F081C080915C
:10451000BB049091BC04029708F07AC08091E80037
:10452000877F8093E8008091E80082FD05C080913C
:10453000B6048111F8CF6CC02091F3008091F20095
:1045400090E0922B029729F48091F1008B7F8130CB
:1045500021F48091F1008093A4028091E8008B7790
:1045600053C08091B704813A09F052C08091BB04D6
:104570009091BC04892B09F04BC08091E800877FA3
:104580008093E8008091E80080FFFCCF80913701A4
:1045900036C08091B7048132D9F58091BB049091E7
:1045A000BC04892BA9F58091E800877F8093E800FF
:1045B0000E9404258091B904809337010C94BB19A3
:1045C0008091B704813221F58091E800877F809344
:1045D000E8000E9404258091BA048093A502089502
:1045E0008091B704813AA1F48091E800877F80939D
:1045F000E8008091E80080FFFCCF8091A5028093C5
:10460000F1008091E8008E778093E8000C940425F7
:10461000089584B7877F84BF0FB6F894A8958091DA
:104620006000886180936000109260000FBE90E08F
:1046300080E80FB6F89480936100909361000FBEFC
:104640000E94DA150E9456250E94B3258091E2004F
:1046500084608093E20078940E9448280E94E415C8
:104660008DE291E00E9459158091B6048530A9F43D
:104670008091B604853079F40E94EF208091B404D3
:104680008823B1F30E94D720882391F30E94AF239F
:104690000E94BB19EDCF0E941F210E94EF150E94BE
:1046A000CE150E94CD15E0CF0C945623292F332729
:1046B00023303105C9F060F42130310581F022301A
:1046C000310509F044C08BE390E02DE738E043C0AA
:1046D00021323105E1F02232310549F138C082E161
:1046E00090E028EB38E037C099278130910549F0F8
:1046F00028F0029761F5E9E5F8E005C0E9E7F8E0A0
:1047000002C0E7E6F8E0849190E09F0124C06115C3
:10471000710541F061307105D1F489E090E028EA3B
:1047200038E019C089E090E02FE838E014C0611546
:10473000710541F06130710551F489E490E02AEC93
:1047400038E009C080E490E023E139E004C080E073
:1047500090E020E030E0FA0131832083089580E189
:1047600089BD82E189BD09B400FEFDCF8091D800EA
:104770008F7D8093D8008091E00082608093E0007C
:104780008091E00081FDFCCF0895CF92DF92EF92FF
:10479000FF920F931F93CF93DF93EC018B017A016C
:1047A0000E942325811133C0E114F10439F0F7018F
:1047B00080819181081B190BC80FD91FC12CD12CE6
:1047C0000115110519F18091E80085FD16C0809151
:1047D000E8008E778093E800E114F10449F0F701D6
:1047E00080819181C80ED91ED182C08285E00FC020
:1047F0000E942325882321F30AC089918093F10028
:1048000001501109FFEFCF1ADF0ADACF80E0DF9104
:10481000CF911F910F91FF90EF90DF90CF9008956F
:104820002091BD043091BE042617370748F061156A
:10483000710539F42091E8002E772093E80001C03B
:10484000B901FC0120E06115710579F18091B60490
:104850008823F1F18530F1F18091E80083FD3CC0BF
:104860008091E80082FD2EC08091E80080FFEBCFB0
:104870002091F3008091F20090E0922B6115710578
:1048800051F08830910538F421912093F100615066
:1048900071090196F3CF21E0089709F020E080919B
:1048A000E8008E778093E800CECF2111CFCF0AC0E9
:1048B0008091B604882361F0853061F08091E80032
:1048C00083FD0AC08091E80082FFF2CF80E0089566
:1048D00082E0089583E0089581E008952091BD0469
:1048E0003091BE042617370748F06115710539F479
:1048F0002091E8002E772093E80001C0B901FC0167
:1049000020E06115710591F18091B604882309F4C6
:1049100040C0853009F43FC08091E80083FD3DC070
:104920008091E80082FD2FC08091E80080FFE9CFF0
:104930002091F3008091F20090E0922B61157105B7
:1049400059F08830910540F424912093F10031967C
:10495000615071090196F2CF21E0089709F020E03B
:104960008091E8008E778093E800CBCF2111CCCFE7
:104970000AC08091B604882361F0853061F080918F
:10498000E80083FD0AC08091E80082FFF2CF80E05A
:10499000089582E0089583E0089581E00895982FB6
:1049A000973068F59093E900981739F07091EC0012
:1049B0002091ED005091F00003C0242F762F50E09D
:1049C00021FD02C09F5FECCF3091EB003E7F309322
:1049D000EB003091ED003D7F3093ED003091EB0026
:1049E00031603093EB007093EC002093ED00509316
:1049F000F0002091EE0027FDE5CF80E008958F7054
:104A00008093E90081E008958091B70487FF11C089
:104A10008091E80082FD05C08091B6048111F8CF35
:104A200011C08091E8008B770BC08091B604882379
:104A300049F08091E80080FFF8CF8091E8008E7700
:104A40008093E80008952091E4003091E50095E618
:104A50004091EC00842F817040FF23C08091E800DA
:104A600080FD1DC08091B604882399F0853099F0AF
:104A70008091EB0085FD11C04091E4005091E5006C
:104A80002417350729F3915011F09A01E1CF84E002
:104A9000089582E0089583E0089581E0089580E01C
:104AA00008954091E80042FFDDCF08950E94C4259B
:104AB0000E94CC25E0EEF0E0808181608083E8ED0B
:104AC000F0E080818F77808319BCA7EDB0E08C91F6
:104AD0008E7F8C9380818F7E80831092B5040895A1
:104AE0000F931F93CF93DF930E94C4250E94CC2580
:104AF000C8EDD0E088818F7788838881806888833B
:104B000088818F7D888319BC1092B6041092B204FC
:104B10001092B4041092B30400EE10E0F80180810A
:104B20008B7F808388818160888342E060E080E0C1
:104B30000E94CF24E1EEF0E080818E7F8083E2EE60
:104B4000F0E0808181608083808188608083F801CB
:104B500080818E7F8083888180618883DF91CF917F
:104B60001F910F910895E8EDF0E080818F7E8083A2
:104B7000E7EDF0E080818160808384E082BF81E0A6
:104B80008093B5040C947025E8EDF0E080818E7F71
:104B900080831092E20008951092DA001092E100F2
:104BA00008951F920F920FB60F9211242F933F93E7
:104BB0004F935F936F937F938F939F93AF93BF9325
:104BC000EF93FF938091E10082FF0BC08091E200A0
:104BD00082FF07C08091E1008B7F8093E1000E94FB
:104BE00047288091DA0080FF1FC08091D80080FFA5
:104BF0001BC08091DA008E7F8093DA008091D9000B
:104C000080FF0DC080E189BD82E189BD09B400FE4D
:104C1000FDCF81E08093B6040E942E2205C019BC0E
:104C20001092B6040E943C228091E10080FF19C0DE
:104C30008091E20080FF15C08091E2008E7F80931A
:104C4000E2008091E20080618093E2008091D800D0
:104C500080628093D80019BC85E08093B6040E94DE
:104C600040228091E10084FF30C08091E20084FF07
:104C70002CC080E189BD82E189BD09B400FEFDCF71
:104C80008091D8008F7D8093D8008091E1008F7E45
:104C90008093E1008091E2008F7E8093E20080911A
:104CA000E20081608093E2008091B204882311F0D9
:104CB00084E007C08091E30087FD02C081E001C06D
:104CC00083E08093B6040E9441228091E10083FF3B
:104CD00029C08091E20083FF25C08091E100877F99
:104CE0008093E10082E08093B6041092B204809138
:104CF000E1008E7F8093E1008091E2008E7F8093BF
:104D0000E2008091E20080618093E20042E060E096
:104D100080E00E94CF248091F00088608093F000B2
:104D20000E943F22FF91EF91BF91AF919F918F9190
:104D30007F916F915F914F913F912F910F900FBE97
:104D40000F901F9018951F920F920FB60F9211247B
:104D50002F933F934F935F936F937F938F939F9383
:104D6000AF93BF93CF93DF93EF93FF93C091E9008D
:104D7000CF708091EC00D82FD17080FDD0E81092D8
:104D8000E9008091F000877F8093F00078940E9482
:104D9000E7261092E9008091F00088608093F0008F
:104DA000CD2BCF70C093E900FF91EF91DF91CF91B0
:104DB000BF91AF919F918F917F916F915F914F9133
:104DC0003F912F910F900FBE0F901F9018951F933A
:104DD000CF93DF93CDB7DEB7AA970FB6F894DEBFB7
:104DE0000FBECDBFE7EBF4E08091F100819324E0AA
:104DF000EF3BF207C9F70E944C228091E80083FF45
:104E00002EC18091B7049091B804492F50E04A30E8
:104E1000510508F024C1FA01E158FF4F0C9497287E
:104E2000803821F0823809F01AC108C08091B3049B
:104E30009091B404992389F082600FC08091BB04E3
:104E40008F70873008F00BC18093E9008091EB00F0
:104E500085FB882780F91092E9009091E800977F00
:104E60009093E8008093F1001092F100D1C0282FB8
:104E70002D7F09F0F4C0882319F0823061F0EFC073
:104E80008091B904813009F0EAC0933009F080E0E4
:104E90008093B4042EC08091B90481112AC08091FE
:104EA000BB048F702FEF280F263008F0D8C08093F6
:104EB000E9002091EB0020FF1CC0933021F4809189
:104EC000EB00806214C09091EB0090619093EB0036
:104ED00021E030E0A90102C0440F551F8A95E2F796
:104EE0004093EA001092EA008091EB008860809382
:104EF000EB001092E9008091E800877F8093E80042
:104F00000E940425ACC08111AAC01091B9041F777A
:104F10008091E3008078812B8093E3008091E8000A
:104F2000877F8093E8000E9404258091E80080FF3D
:104F3000FCCF8091E30080688093E300111102C0F0
:104F400082E001C083E08093B60489C0805882303B
:104F500008F085C08091B9049091BA048C3D53E06B
:104F6000950779F583E08A838AE289834FB7F894BD
:104F7000DE01139620E03EE051E2E32FF0E0509393
:104F80005700E49120FF03C0E295EF703F5FEF70A0
:104F90008E2F90E0EA3010F0C79601C0C0968D9336
:104FA0009D932F5F243149F74FBF8091E800877FA1
:104FB0008093E8006AE270E0CE0101960E9410241E
:104FC00016C06091BB047091BC04AE014F5F5F4F8F
:104FD0000E945423BC01892B09F441C09091E80040
:104FE000977F9093E80089819A810E946E24809136
:104FF000E8008B778093E80032C0803881F580919B
:10500000E800877F8093E8008091B2048093F100EC
:105010008091E8008E7772CF811121C08091B90410
:105020009091BA0499270297D4F48091E800877F81
:105030008093E8008091B9048093B2040E94042513
:105040008091B204811106C08091E30087FD02C007
:1050500081E001C084E08093B6040E9442228091E6
:10506000E80083FF0AC08091E800877F8093E80012
:105070008091EB0080628093EB00AA960FB6F894C3
:10508000DEBF0FBECDBFDF91CF911F910895089570
:10509000CF938091B6048823A1F0C091E900CF702E
:1050A0009091EC00892F817090FD80E8C82B1092C0
:1050B000E9008091E80083FD0E94E726CF70C0934D
:1050C000E900CF910895991B79E004C0991F9617C4
:1050D00008F0961B881F7A95C9F780950895AA1B3A
:1050E000BB1B51E107C0AA1FBB1FA617B70710F0D3
:1050F000A61BB70B881F991F5A95A9F78095909505
:10510000BC01CD01089597FB072E16F4009407D03B
:1051100077FD09D00E946F2807FC05D03EF49095DA
:1051200081959F4F0895709561957F4F0895EE0F7B
:10513000FF1F0590F491E02D0994FB01DC0102C0F2
:1051400005900D9241505040D8F70895FB01DC01C5
:1051500004C08D910190801921F441505040C8F74E
:10516000881B990B0895AEE0B0E0E9EBF8E20C94EF
:10517000C42B0D891E898F89988D26E02C831A8374
:10518000098397FF02C080E090E801979E838D839A
:10519000AE01455E5F4F698D7A8DCE0101960E940A
:1051A000E3284D815E8157FD0AC02F813885421763
:1051B00053070CF49A01F801E20FF31F10822E96A8
:1051C000E4E00C94E02BABE0B0E0E9EEF8E20C9404
:1051D000B62B6C017B018A01FC0117821682838148
:1051E00081FFCCC1CE0101963C01F6019381F7010C
:1051F00093FD859193FF81917F01882309F4BAC1C2
:10520000853239F493FD859193FF81917F01853239
:1052100029F4B60190E00E94DA2AE7CF912C212CE4
:10522000312CFFE1F315D8F08B3279F038F480326D
:1052300079F08332A1F4232D20611DC08D3261F0FD
:10524000803369F4232D216016C0832D8260382EAF
:10525000E32DE4603E2E2AC0F32DF8601DC037FC1C
:105260002DC020ED280F2A3040F08E32B9F436FCE4
:1052700081C1232D2064322E19C036FE06C08AE07B
:10528000989E200D1124922E11C0EAE02E9E200D32
:105290001124222EF32DF0623F2E08C08C3621F40B
:1052A000832D8068382E02C0883641F4F70193FDC3
:1052B000859193FF81917F018111B3CF982F9F7DBD
:1052C0009554933028F40C5F1F4F9FE399830DC0D2
:1052D000833631F0833771F0833509F059C021C02E
:1052E000F801808189830E5F1F4F88248394912C5D
:1052F000530113C02801F2E04F0E511CF801A080A9
:10530000B18036FE03C0692D70E002C06FEF7FEF01
:10531000C5010E94CF2A4C018201F32DFF773F2E59
:1053200016C0280122E0420E511CF801A080B18075
:1053300036FE03C0692D70E002C06FEF7FEFC5013C
:105340000E94C42A4C01F32DF0683F2E820133FCE9
:105350001BC0822D90E088169906B0F4B60180E259
:1053600090E00E94DA2A2A94F4CFF50137FC859167
:1053700037FE81915F01B60190E00E94DA2A211088
:105380002A9421E0821A91088114910471F7E8C0EF
:10539000843611F0893641F5F80137FE07C0608187
:1053A0007181828193810C5F1F4F08C06081718180
:1053B000072E000C880B990B0E5F1F4FF32DFF7605
:1053C0003F2E97FF09C090958095709561957F4F0E
:1053D0008F4F9F4FF0683F2E2AE030E0A3010E94DC
:1053E000162B882E861845C0853731F4232D2F7E45
:1053F000B22E2AE030E025C0932D997FB92E8F364A
:10540000C1F018F4883579F0B5C0803719F08837C5
:1054100021F0B0C0E92FE061BE2EB4FE0DC0FB2D1F
:10542000F460BF2E09C034FE0AC0292F2660B22EB8
:1054300006C028E030E005C020E130E002C020E1F5
:1054400032E0F801B7FE07C06081718182819381EB
:105450000C5F1F4F06C06081718180E090E00E5F9D
:105460001F4FA3010E94162B882E8618FB2DFF7755
:105470003F2E36FE0DC0232D2E7FA22E891458F408
:1054800034FE0BC032FC09C0832D8E7EA82E05C0D1
:10549000B82CA32C03C0B82C01C0B92CA4FE0FC09B
:1054A000FE01E80DF11D8081803321F49A2D997E53
:1054B000A92E09C0A2FE06C0B394B39404C08A2DDD
:1054C000867809F0B394A3FC11C0A0FE06C0B21404
:1054D00088F4280C922C9B180EC0B21460F4B6010C
:1054E00080E290E00E94DA2AB394F7CFB21418F465
:1054F0002B1802C0982C212CA4FE10C0B60180E30A
:1055000090E00E94DA2AA2FE17C0A1FC03C088E73F
:1055100090E002C088E590E0B6010CC08A2D867844
:1055200059F0A1FE02C08BE201C080E2A7FC8DE22F
:10553000B60190E00E94DA2A891438F4B60180E3BB
:1055400090E00E94DA2A9A94F7CF8A94F301E80D4A
:10555000F11D8081B60190E00E94DA2A8110F5CF1A
:10556000222009F442CEB60180E290E00E94DA2ABD
:105570002A94F6CFF6018681978102C08FEF9FEFC4
:105580002B96E2E10C94D22BFC0105906150704007
:105590000110D8F7809590958E0F9F1F0895FC01FC
:1055A0006150704001900110D8F7809590958E0F52
:1055B0009F1F08950F931F93CF93DF93FB012381C8
:1055C00021FD03C08FEF9FEF2CC022FF16C0468144
:1055D0005781248135814217530744F4A081B1815A
:1055E0009D012F5F3F4F318320838C93268137812C
:1055F0002F5F3F4F3783268314C08B01EC01FB01E3
:105600000084F185E02D0995892BE1F6D8011696E5
:105610008D919C911797019617969C938E93169750
:10562000CE01DF91CF911F910F910895FA01AA2722
:10563000283051F1203181F1E8946F936E7F6E5FD5
:105640007F4F8F4F9F4FAF4FB1E03ED0B4E03CD083
:10565000670F781F891F9A1FA11D680F791F8A1F66
:10566000911DA11D6A0F711D811D911DA11D20D0CD
:1056700009F468943F912AE0269F11243019305D87
:105680003193DEF6CF010895462F4770405D419378
:10569000B3E00FD0C9F7F6CF462F4F70405D4A33C5
:1056A00018F0495D31FD4052419302D0A9F7EACF8D
:1056B000B4E0A6959795879577956795BA95C9F7BC
:1056C00000976105710508959B01AC010A2E0694AF
:1056D0005795479537952795BA95C9F7620F731F68
:1056E000841F951FA01D0895F999FECF92BD81BD1D
:1056F000F89A992780B50895A8E1B0E042E050E01B
:105700000C94A82B262FF999FECF92BD81BDF89A53
:10571000019700B4021639F01FBA20BD0FB6F894F5
:10572000FA9AF99A0FBE08950396272F0E94832BA9
:105730000E94822B252F0E94832B242F0C94832BD5
:105740000196272F0E94832B0C94822BDC01CB0126
:10575000FC01F999FECF06C0F2BDE1BDF89A319681
:1057600000B40D9241505040B8F708952F923F92E7
:105770004F925F926F927F928F929F92AF92BF9261
:10578000CF92DF92EF92FF920F931F93CF93DF930D
:10579000CDB7DEB7CA1BDB0B0FB6F894DEBF0FBE6A
:1057A000CDBF09942A88398848885F846E847D84B7
:1057B0008C849B84AA84B984C884DF80EE80FD80B9
:1057C0000C811B81AA81B981CE0FD11D0FB6F8942F
:0E57D000DEBF0FBECDBFED010895F894FFCFF0
:1057DE000501B50100000001B301B50104B60101D8
:1057EE00B301B40100000004BA01FFFF2808641ED3
:1057FE00140A321E0021007F2200038F02DE2101D7
:10580E0022E2212D22E12101F4F5F6F731339466DF
:10581E0097C60000000025647825642C206B253285
:10582E0064203A2025630020202020616263646595
:10583E00666768696A6B6C6D6E6F70717273747582
:10584E00767778797A313233343536373839305293
:10585E004542545F2D3D5B5D5C233B27602C2E2F14
:0C586E002020200008101818100800006E
:00000001FF
